{
    "_format": "hh-sol-artifact-1",
    "contractName": "DIDRegistry",
    "sourceName": "contracts/did/DIdRegistry.sol",
    "abi": [
        {
            "inputs": [],
            "name": "AccessControlBadConfirmation",
            "type": "error"
        },
        {
            "inputs": [
                {
                    "internalType": "address",
                    "name": "account",
                    "type": "address"
                },
                {
                    "internalType": "bytes32",
                    "name": "neededRole",
                    "type": "bytes32"
                }
            ],
            "name": "AccessControlUnauthorizedAccount",
            "type": "error"
        },
        {
            "inputs": [
                {
                    "internalType": "address",
                    "name": "target",
                    "type": "address"
                }
            ],
            "name": "AddressEmptyCode",
            "type": "error"
        },
        {
            "inputs": [
                {
                    "internalType": "bytes32",
                    "name": "capId",
                    "type": "bytes32"
                }
            ],
            "name": "CapIdRevoked",
            "type": "error"
        },
        {
            "inputs": [],
            "name": "ECDSAInvalidSignature",
            "type": "error"
        },
        {
            "inputs": [
                {
                    "internalType": "uint256",
                    "name": "length",
                    "type": "uint256"
                }
            ],
            "name": "ECDSAInvalidSignatureLength",
            "type": "error"
        },
        {
            "inputs": [
                {
                    "internalType": "bytes32",
                    "name": "s",
                    "type": "bytes32"
                }
            ],
            "name": "ECDSAInvalidSignatureS",
            "type": "error"
        },
        {
            "inputs": [
                {
                    "internalType": "address",
                    "name": "implementation",
                    "type": "address"
                }
            ],
            "name": "ERC1967InvalidImplementation",
            "type": "error"
        },
        {
            "inputs": [],
            "name": "ERC1967NonPayable",
            "type": "error"
        },
        {
            "inputs": [],
            "name": "FailedCall",
            "type": "error"
        },
        {
            "inputs": [
                {
                    "internalType": "address",
                    "name": "recovered",
                    "type": "address"
                },
                {
                    "internalType": "address",
                    "name": "expected",
                    "type": "address"
                }
            ],
            "name": "InvalidCapabilitySignature",
            "type": "error"
        },
        {
            "inputs": [],
            "name": "InvalidInitialization",
            "type": "error"
        },
        {
            "inputs": [
                {
                    "internalType": "address",
                    "name": "issuer",
                    "type": "address"
                }
            ],
            "name": "IssuerAlreadyExists",
            "type": "error"
        },
        {
            "inputs": [
                {
                    "internalType": "address",
                    "name": "issuer",
                    "type": "address"
                }
            ],
            "name": "IssuerNotRegistered",
            "type": "error"
        },
        {
            "inputs": [
                {
                    "internalType": "address",
                    "name": "issuer",
                    "type": "address"
                },
                {
                    "internalType": "enum DIDType",
                    "name": "didType",
                    "type": "uint8"
                }
            ],
            "name": "IssuerTypeNotAllowed",
            "type": "error"
        },
        {
            "inputs": [],
            "name": "NoInitialSteward",
            "type": "error"
        },
        {
            "inputs": [
                {
                    "internalType": "address",
                    "name": "signer",
                    "type": "address"
                }
            ],
            "name": "NotAuthoritySigner",
            "type": "error"
        },
        {
            "inputs": [],
            "name": "NotInitializing",
            "type": "error"
        },
        {
            "inputs": [],
            "name": "UUPSUnauthorizedCallContext",
            "type": "error"
        },
        {
            "inputs": [
                {
                    "internalType": "bytes32",
                    "name": "slot",
                    "type": "bytes32"
                }
            ],
            "name": "UUPSUnsupportedProxiableUUID",
            "type": "error"
        },
        {
            "inputs": [],
            "name": "ZeroAddress",
            "type": "error"
        },
        {
            "anonymous": false,
            "inputs": [
                {
                    "indexed": true,
                    "internalType": "address",
                    "name": "signer",
                    "type": "address"
                },
                {
                    "indexed": false,
                    "internalType": "uint64",
                    "name": "newEpoch",
                    "type": "uint64"
                }
            ],
            "name": "CapabilityEpochBumped",
            "type": "event"
        },
        {
            "anonymous": false,
            "inputs": [
                {
                    "indexed": true,
                    "internalType": "address",
                    "name": "signer",
                    "type": "address"
                },
                {
                    "indexed": true,
                    "internalType": "bytes32",
                    "name": "capId",
                    "type": "bytes32"
                }
            ],
            "name": "CapabilityRevoked",
            "type": "event"
        },
        {
            "anonymous": false,
            "inputs": [
                {
                    "indexed": true,
                    "internalType": "address",
                    "name": "did",
                    "type": "address"
                },
                {
                    "indexed": false,
                    "internalType": "enum DIDType",
                    "name": "didType",
                    "type": "uint8"
                },
                {
                    "indexed": false,
                    "internalType": "bytes32",
                    "name": "docHash",
                    "type": "bytes32"
                }
            ],
            "name": "DIDCreated",
            "type": "event"
        },
        {
            "anonymous": false,
            "inputs": [
                {
                    "indexed": true,
                    "internalType": "address",
                    "name": "did",
                    "type": "address"
                }
            ],
            "name": "DIDRevoked",
            "type": "event"
        },
        {
            "anonymous": false,
            "inputs": [
                {
                    "indexed": true,
                    "internalType": "address",
                    "name": "did",
                    "type": "address"
                },
                {
                    "indexed": false,
                    "internalType": "bytes32",
                    "name": "docHash",
                    "type": "bytes32"
                },
                {
                    "indexed": false,
                    "internalType": "bytes32",
                    "name": "name",
                    "type": "bytes32"
                },
                {
                    "indexed": false,
                    "internalType": "bytes",
                    "name": "value",
                    "type": "bytes"
                }
            ],
            "name": "DIDUpdated",
            "type": "event"
        },
        {
            "anonymous": false,
            "inputs": [
                {
                    "indexed": false,
                    "internalType": "uint64",
                    "name": "version",
                    "type": "uint64"
                }
            ],
            "name": "Initialized",
            "type": "event"
        },
        {
            "anonymous": false,
            "inputs": [
                {
                    "indexed": true,
                    "internalType": "address",
                    "name": "issuer",
                    "type": "address"
                },
                {
                    "indexed": false,
                    "internalType": "uint8",
                    "name": "maskType",
                    "type": "uint8"
                }
            ],
            "name": "IssuerPermissionsUpdated",
            "type": "event"
        },
        {
            "anonymous": false,
            "inputs": [
                {
                    "indexed": true,
                    "internalType": "bytes32",
                    "name": "role",
                    "type": "bytes32"
                },
                {
                    "indexed": true,
                    "internalType": "bytes32",
                    "name": "previousAdminRole",
                    "type": "bytes32"
                },
                {
                    "indexed": true,
                    "internalType": "bytes32",
                    "name": "newAdminRole",
                    "type": "bytes32"
                }
            ],
            "name": "RoleAdminChanged",
            "type": "event"
        },
        {
            "anonymous": false,
            "inputs": [
                {
                    "indexed": true,
                    "internalType": "bytes32",
                    "name": "role",
                    "type": "bytes32"
                },
                {
                    "indexed": true,
                    "internalType": "address",
                    "name": "account",
                    "type": "address"
                },
                {
                    "indexed": true,
                    "internalType": "address",
                    "name": "sender",
                    "type": "address"
                }
            ],
            "name": "RoleGranted",
            "type": "event"
        },
        {
            "anonymous": false,
            "inputs": [
                {
                    "indexed": true,
                    "internalType": "bytes32",
                    "name": "role",
                    "type": "bytes32"
                },
                {
                    "indexed": true,
                    "internalType": "address",
                    "name": "account",
                    "type": "address"
                },
                {
                    "indexed": true,
                    "internalType": "address",
                    "name": "sender",
                    "type": "address"
                }
            ],
            "name": "RoleRevoked",
            "type": "event"
        },
        {
            "anonymous": false,
            "inputs": [
                {
                    "indexed": true,
                    "internalType": "address",
                    "name": "implementation",
                    "type": "address"
                }
            ],
            "name": "Upgraded",
            "type": "event"
        },
        {
            "inputs": [],
            "name": "ADMIN_ROLE",
            "outputs": [
                {
                    "internalType": "bytes32",
                    "name": "",
                    "type": "bytes32"
                }
            ],
            "stateMutability": "view",
            "type": "function"
        },
        {
            "inputs": [],
            "name": "DEFAULT_ADMIN_ROLE",
            "outputs": [
                {
                    "internalType": "bytes32",
                    "name": "",
                    "type": "bytes32"
                }
            ],
            "stateMutability": "view",
            "type": "function"
        },
        {
            "inputs": [],
            "name": "ISSUER_ROLE",
            "outputs": [
                {
                    "internalType": "bytes32",
                    "name": "",
                    "type": "bytes32"
                }
            ],
            "stateMutability": "view",
            "type": "function"
        },
        {
            "inputs": [],
            "name": "STEWARD_ROLE",
            "outputs": [
                {
                    "internalType": "bytes32",
                    "name": "",
                    "type": "bytes32"
                }
            ],
            "stateMutability": "view",
            "type": "function"
        },
        {
            "inputs": [],
            "name": "UPGRADE_INTERFACE_VERSION",
            "outputs": [
                {
                    "internalType": "string",
                    "name": "",
                    "type": "string"
                }
            ],
            "stateMutability": "view",
            "type": "function"
        },
        {
            "inputs": [
                {
                    "internalType": "address",
                    "name": "issuer",
                    "type": "address"
                },
                {
                    "internalType": "enum DIDType[]",
                    "name": "permissions",
                    "type": "uint8[]"
                }
            ],
            "name": "addIssuer",
            "outputs": [],
            "stateMutability": "nonpayable",
            "type": "function"
        },
        {
            "inputs": [],
            "name": "bumpCapabilityEpoch",
            "outputs": [],
            "stateMutability": "nonpayable",
            "type": "function"
        },
        {
            "inputs": [
                {
                    "internalType": "address",
                    "name": "signer",
                    "type": "address"
                },
                {
                    "internalType": "enum DIDType",
                    "name": "didType",
                    "type": "uint8"
                },
                {
                    "internalType": "bytes32",
                    "name": "docHash",
                    "type": "bytes32"
                },
                {
                    "internalType": "bytes32",
                    "name": "capId",
                    "type": "bytes32"
                },
                {
                    "internalType": "uint8",
                    "name": "v",
                    "type": "uint8"
                },
                {
                    "internalType": "bytes32",
                    "name": "r",
                    "type": "bytes32"
                },
                {
                    "internalType": "bytes32",
                    "name": "s",
                    "type": "bytes32"
                }
            ],
            "name": "createDID",
            "outputs": [],
            "stateMutability": "nonpayable",
            "type": "function"
        },
        {
            "inputs": [
                {
                    "internalType": "address",
                    "name": "did",
                    "type": "address"
                },
                {
                    "internalType": "enum DIDType",
                    "name": "didType",
                    "type": "uint8"
                },
                {
                    "internalType": "bytes32",
                    "name": "docHash",
                    "type": "bytes32"
                }
            ],
            "name": "createDIDByIssuer",
            "outputs": [],
            "stateMutability": "nonpayable",
            "type": "function"
        },
        {
            "inputs": [
                {
                    "internalType": "address",
                    "name": "issuer",
                    "type": "address"
                },
                {
                    "internalType": "enum DIDType[]",
                    "name": "permissions",
                    "type": "uint8[]"
                },
                {
                    "internalType": "bytes32",
                    "name": "docHash",
                    "type": "bytes32"
                }
            ],
            "name": "createIssuer",
            "outputs": [],
            "stateMutability": "nonpayable",
            "type": "function"
        },
        {
            "inputs": [
                {
                    "internalType": "address",
                    "name": "signer",
                    "type": "address"
                }
            ],
            "name": "getCapabilityEpoch",
            "outputs": [
                {
                    "internalType": "uint64",
                    "name": "",
                    "type": "uint64"
                }
            ],
            "stateMutability": "view",
            "type": "function"
        },
        {
            "inputs": [
                {
                    "internalType": "bytes32",
                    "name": "role",
                    "type": "bytes32"
                }
            ],
            "name": "getRoleAdmin",
            "outputs": [
                {
                    "internalType": "bytes32",
                    "name": "",
                    "type": "bytes32"
                }
            ],
            "stateMutability": "view",
            "type": "function"
        },
        {
            "inputs": [
                {
                    "internalType": "bytes32",
                    "name": "role",
                    "type": "bytes32"
                },
                {
                    "internalType": "address",
                    "name": "account",
                    "type": "address"
                }
            ],
            "name": "grantRole",
            "outputs": [],
            "stateMutability": "nonpayable",
            "type": "function"
        },
        {
            "inputs": [
                {
                    "internalType": "bytes32",
                    "name": "role",
                    "type": "bytes32"
                },
                {
                    "internalType": "address",
                    "name": "account",
                    "type": "address"
                }
            ],
            "name": "hasRole",
            "outputs": [
                {
                    "internalType": "bool",
                    "name": "",
                    "type": "bool"
                }
            ],
            "stateMutability": "view",
            "type": "function"
        },
        {
            "inputs": [
                {
                    "internalType": "address[]",
                    "name": "initialStewards",
                    "type": "address[]"
                },
                {
                    "internalType": "address",
                    "name": "upgradeControlAddress",
                    "type": "address"
                }
            ],
            "name": "initialize",
            "outputs": [],
            "stateMutability": "nonpayable",
            "type": "function"
        },
        {
            "inputs": [
                {
                    "internalType": "address",
                    "name": "signer",
                    "type": "address"
                },
                {
                    "internalType": "bytes32",
                    "name": "capId",
                    "type": "bytes32"
                }
            ],
            "name": "isCapabilityRevoked",
            "outputs": [
                {
                    "internalType": "bool",
                    "name": "",
                    "type": "bool"
                }
            ],
            "stateMutability": "view",
            "type": "function"
        },
        {
            "inputs": [
                {
                    "internalType": "address",
                    "name": "issuer",
                    "type": "address"
                },
                {
                    "internalType": "enum DIDType",
                    "name": "didType",
                    "type": "uint8"
                }
            ],
            "name": "isIssuerAllowedForType",
            "outputs": [
                {
                    "internalType": "bool",
                    "name": "",
                    "type": "bool"
                }
            ],
            "stateMutability": "view",
            "type": "function"
        },
        {
            "inputs": [],
            "name": "proxiableUUID",
            "outputs": [
                {
                    "internalType": "bytes32",
                    "name": "",
                    "type": "bytes32"
                }
            ],
            "stateMutability": "view",
            "type": "function"
        },
        {
            "inputs": [
                {
                    "internalType": "address",
                    "name": "issuer",
                    "type": "address"
                }
            ],
            "name": "removeIssuer",
            "outputs": [],
            "stateMutability": "nonpayable",
            "type": "function"
        },
        {
            "inputs": [
                {
                    "internalType": "bytes32",
                    "name": "role",
                    "type": "bytes32"
                },
                {
                    "internalType": "address",
                    "name": "callerConfirmation",
                    "type": "address"
                }
            ],
            "name": "renounceRole",
            "outputs": [],
            "stateMutability": "nonpayable",
            "type": "function"
        },
        {
            "inputs": [
                {
                    "internalType": "bytes32",
                    "name": "capId",
                    "type": "bytes32"
                }
            ],
            "name": "revokeCapability",
            "outputs": [],
            "stateMutability": "nonpayable",
            "type": "function"
        },
        {
            "inputs": [
                {
                    "internalType": "address",
                    "name": "did",
                    "type": "address"
                }
            ],
            "name": "revokeDIDByIssuer",
            "outputs": [],
            "stateMutability": "nonpayable",
            "type": "function"
        },
        {
            "inputs": [
                {
                    "internalType": "bytes32",
                    "name": "role",
                    "type": "bytes32"
                },
                {
                    "internalType": "address",
                    "name": "account",
                    "type": "address"
                }
            ],
            "name": "revokeRole",
            "outputs": [],
            "stateMutability": "nonpayable",
            "type": "function"
        },
        {
            "inputs": [
                {
                    "internalType": "address",
                    "name": "signer",
                    "type": "address"
                },
                {
                    "internalType": "bytes32",
                    "name": "name",
                    "type": "bytes32"
                },
                {
                    "internalType": "bytes",
                    "name": "value",
                    "type": "bytes"
                },
                {
                    "internalType": "bytes32",
                    "name": "docHash",
                    "type": "bytes32"
                },
                {
                    "internalType": "bytes32",
                    "name": "capId",
                    "type": "bytes32"
                },
                {
                    "internalType": "uint8",
                    "name": "v",
                    "type": "uint8"
                },
                {
                    "internalType": "bytes32",
                    "name": "r",
                    "type": "bytes32"
                },
                {
                    "internalType": "bytes32",
                    "name": "s",
                    "type": "bytes32"
                }
            ],
            "name": "setAttribute",
            "outputs": [],
            "stateMutability": "nonpayable",
            "type": "function"
        },
        {
            "inputs": [
                {
                    "internalType": "address",
                    "name": "did",
                    "type": "address"
                },
                {
                    "internalType": "bytes32",
                    "name": "name",
                    "type": "bytes32"
                },
                {
                    "internalType": "bytes",
                    "name": "value",
                    "type": "bytes"
                },
                {
                    "internalType": "bytes32",
                    "name": "docHash",
                    "type": "bytes32"
                }
            ],
            "name": "setAttributeByIssuer",
            "outputs": [],
            "stateMutability": "nonpayable",
            "type": "function"
        },
        {
            "inputs": [
                {
                    "internalType": "address",
                    "name": "signer",
                    "type": "address"
                },
                {
                    "internalType": "bytes32",
                    "name": "docHash",
                    "type": "bytes32"
                },
                {
                    "internalType": "bytes32",
                    "name": "capId",
                    "type": "bytes32"
                },
                {
                    "internalType": "uint8",
                    "name": "v",
                    "type": "uint8"
                },
                {
                    "internalType": "bytes32",
                    "name": "r",
                    "type": "bytes32"
                },
                {
                    "internalType": "bytes32",
                    "name": "s",
                    "type": "bytes32"
                }
            ],
            "name": "setDocumentHash",
            "outputs": [],
            "stateMutability": "nonpayable",
            "type": "function"
        },
        {
            "inputs": [
                {
                    "internalType": "address",
                    "name": "did",
                    "type": "address"
                },
                {
                    "internalType": "bytes32",
                    "name": "docHash",
                    "type": "bytes32"
                }
            ],
            "name": "setDocumentHashByIssuer",
            "outputs": [],
            "stateMutability": "nonpayable",
            "type": "function"
        },
        {
            "inputs": [
                {
                    "internalType": "address",
                    "name": "issuer",
                    "type": "address"
                },
                {
                    "internalType": "enum DIDType[]",
                    "name": "permissions",
                    "type": "uint8[]"
                }
            ],
            "name": "setIssuerPermissions",
            "outputs": [],
            "stateMutability": "nonpayable",
            "type": "function"
        },
        {
            "inputs": [
                {
                    "internalType": "bytes4",
                    "name": "interfaceId",
                    "type": "bytes4"
                }
            ],
            "name": "supportsInterface",
            "outputs": [
                {
                    "internalType": "bool",
                    "name": "",
                    "type": "bool"
                }
            ],
            "stateMutability": "view",
            "type": "function"
        },
        {
            "inputs": [
                {
                    "internalType": "address",
                    "name": "newImplementation",
                    "type": "address"
                },
                {
                    "internalType": "bytes",
                    "name": "data",
                    "type": "bytes"
                }
            ],
            "name": "upgradeToAndCall",
            "outputs": [],
            "stateMutability": "payable",
            "type": "function"
        }
    ],
    "bytecode": "0x60a06040523073ffffffffffffffffffffffffffffffffffffffff1660809073ffffffffffffffffffffffffffffffffffffffff16815250348015610042575f80fd5b506080516140576100695f395f81816121e60152818161223b015261247501526140575ff3fe6080604052600436106101cc575f3560e01c806364305916116100f6578063a217fddf11610094578063cec1fddb11610063578063cec1fddb14610646578063d23648641461066e578063d547741f14610696578063eef74861146106be576101cc565b8063a217fddf146105a2578063ad3cb1cc146105cc578063adf4d59e146105f6578063c43d15331461061e576101cc565b8063767ba36f116100d0578063767ba36f146104d857806382aefa241461050057806391d148541461052a5780639215bafc14610566576101cc565b8063643059161461046e5780636432567d1461049857806375b238fc146104ae576101cc565b80634399d36f1161016e57806352d1902d1161013d57806352d1902d146103b857806354233b72146103e25780635882b6b71461040a57806361620c2214610446576101cc565b80634399d36f14610324578063462d0b2e1461034c57806347bc7093146103745780634f1ef2861461039c576101cc565b806328a00435116101aa57806328a00435146102705780632f2ff15d146102ac57806336568abe146102d45780633cfd656b146102fc576101cc565b806301ffc9a7146101d05780631325199a1461020c578063248a9ca314610234575b5f80fd5b3480156101db575f80fd5b506101f660048036038101906101f19190612e49565b6106e6565b6040516102039190612e8e565b60405180910390f35b348015610217575f80fd5b50610232600480360381019061022d9190612f62565b61075f565b005b34801561023f575f80fd5b5061025a60048036038101906102559190612ff2565b610896565b604051610267919061302c565b60405180910390f35b34801561027b575f80fd5b5061029660048036038101906102919190613045565b6108b2565b6040516102a39190612e8e565b60405180910390f35b3480156102b7575f80fd5b506102d260048036038101906102cd9190613083565b610914565b005b3480156102df575f80fd5b506102fa60048036038101906102f59190613083565b610936565b005b348015610307575f80fd5b50610322600480360381019061031d91906130e4565b6109b1565b005b34801561032f575f80fd5b5061034a600480360381019061034591906131bf565b610b43565b005b348015610357575f80fd5b50610372600480360381019061036d91906133d7565b610bb5565b005b34801561037f575f80fd5b5061039a60048036038101906103959190613431565b610ec2565b005b6103b660048036038101906103b1919061350c565b610f8f565b005b3480156103c3575f80fd5b506103cc610fae565b6040516103d9919061302c565b60405180910390f35b3480156103ed575f80fd5b5061040860048036038101906104039190612f62565b610fdf565b005b348015610415575f80fd5b50610430600480360381019061042b9190613431565b611085565b60405161043d9190613588565b60405180910390f35b348015610451575f80fd5b5061046c600480360381019061046791906135a1565b6110de565b005b348015610479575f80fd5b5061048261114b565b60405161048f919061302c565b60405180910390f35b3480156104a3575f80fd5b506104ac61116f565b005b3480156104b9575f80fd5b506104c2611323565b6040516104cf919061302c565b60405180910390f35b3480156104e3575f80fd5b506104fe60048036038101906104f9919061362a565b611347565b005b34801561050b575f80fd5b50610514611432565b604051610521919061302c565b60405180910390f35b348015610535575f80fd5b50610550600480360381019061054b9190613083565b611456565b60405161055d9190612e8e565b60405180910390f35b348015610571575f80fd5b5061058c600480360381019061058791906136ae565b6114b9565b6040516105999190612e8e565b60405180910390f35b3480156105ad575f80fd5b506105b661155f565b6040516105c3919061302c565b60405180910390f35b3480156105d7575f80fd5b506105e0611565565b6040516105ed9190613766565b60405180910390f35b348015610601575f80fd5b5061061c60048036038101906106179190612ff2565b61159e565b005b348015610629575f80fd5b50610644600480360381019061063f9190613786565b6116e9565b005b348015610651575f80fd5b5061066c60048036038101906106679190613823565b611832565b005b348015610679575f80fd5b50610694600480360381019061068f9190613045565b6119ba565b005b3480156106a1575f80fd5b506106bc60048036038101906106b79190613083565b611aa0565b005b3480156106c9575f80fd5b506106e460048036038101906106df9190613431565b611ac2565b005b5f7f7965db0b000000000000000000000000000000000000000000000000000000007bffffffffffffffffffffffffffffffffffffffffffffffffffffffff1916827bffffffffffffffffffffffffffffffffffffffffffffffffffffffff19161480610758575061075782611b98565b5b9050919050565b7fa49807205ce4d355092ef5a8a18f56e8913cf4a201fbe287825b095693c2177561078981611c01565b5f73ffffffffffffffffffffffffffffffffffffffff168473ffffffffffffffffffffffffffffffffffffffff16036107ee576040517fd92e233d00000000000000000000000000000000000000000000000000000000815260040160405180910390fd5b6108187f114e74f6ea3bd819998f78687bfcb11b140da08e9b7d222fa9c1f1ba1f2aa12285611456565b1561085a57836040517fc9b1283500000000000000000000000000000000000000000000000000000000815260040161085191906138a3565b60405180910390fd5b6108847f114e74f6ea3bd819998f78687bfcb11b140da08e9b7d222fa9c1f1ba1f2aa12285611c15565b50610890848484611cfe565b50505050565b5f805f8381526020019081526020015f20600101549050919050565b5f60045f8473ffffffffffffffffffffffffffffffffffffffff1673ffffffffffffffffffffffffffffffffffffffff1681526020019081526020015f205f8381526020019081526020015f205f9054906101000a900460ff16905092915050565b61091d82610896565b61092681611c01565b6109308383611c15565b50505050565b61093e611e10565b73ffffffffffffffffffffffffffffffffffffffff168173ffffffffffffffffffffffffffffffffffffffff16146109a2576040517f6697b23200000000000000000000000000000000000000000000000000000000815260040160405180910390fd5b6109ac8282611e17565b505050565b7f114e74f6ea3bd819998f78687bfcb11b140da08e9b7d222fa9c1f1ba1f2aa1226109db81611c01565b5f73ffffffffffffffffffffffffffffffffffffffff168473ffffffffffffffffffffffffffffffffffffffff1603610a40576040517fd92e233d00000000000000000000000000000000000000000000000000000000815260040160405180910390fd5b5f836003811115610a5457610a536138bc565b5b60ff166001901b60025f3373ffffffffffffffffffffffffffffffffffffffff1673ffffffffffffffffffffffffffffffffffffffff1681526020019081526020015f205f9054906101000a900460ff1660ff161603610aed5733836040517fb1b5fe09000000000000000000000000000000000000000000000000000000008152600401610ae492919061392f565b60405180910390fd5b8373ffffffffffffffffffffffffffffffffffffffff167fb8624bc985b015b5d9851ea41053d3cb209b55986003ead30d964007dd3acbf58484604051610b35929190613956565b60405180910390a250505050565b5f339050610b558a8287878787611f00565b8073ffffffffffffffffffffffffffffffffffffffff167f615131cacb29b1272c815ade31516a2c836c68fd8e6a81c3d6579a917bd20ca9878b8b8b604051610ba194939291906139b9565b60405180910390a250505050505050505050565b5f610bbe612088565b90505f815f0160089054906101000a900460ff161590505f825f015f9054906101000a900467ffffffffffffffff1690505f808267ffffffffffffffff16148015610c065750825b90505f60018367ffffffffffffffff16148015610c3957505f3073ffffffffffffffffffffffffffffffffffffffff163b145b905081158015610c47575080155b15610c7e576040517ff92ee8a900000000000000000000000000000000000000000000000000000000815260040160405180910390fd5b6001855f015f6101000a81548167ffffffffffffffff021916908367ffffffffffffffff1602179055508315610ccb576001855f0160086101000a81548160ff0219169083151502179055505b5f875103610d05576040517fb991893900000000000000000000000000000000000000000000000000000000815260040160405180910390fd5b610d0e8661209b565b5f5b8751811015610dea575f73ffffffffffffffffffffffffffffffffffffffff16888281518110610d4357610d426139f7565b5b602002602001015173ffffffffffffffffffffffffffffffffffffffff1603610d98576040517fd92e233d00000000000000000000000000000000000000000000000000000000815260040160405180910390fd5b610ddc7fbde745d383bd90948c6bf528cf5a56a9fe775bfee56a5d53b36fd785802b88ec898381518110610dcf57610dce6139f7565b5b6020026020010151611c15565b508080600101915050610d10565b50610e157fbde745d383bd90948c6bf528cf5a56a9fe775bfee56a5d53b36fd785802b88ec806120e6565b610e5f7fa49807205ce4d355092ef5a8a18f56e8913cf4a201fbe287825b095693c217757fbde745d383bd90948c6bf528cf5a56a9fe775bfee56a5d53b36fd785802b88ec6120e6565b8315610eb9575f855f0160086101000a81548160ff0219169083151502179055507fc7f505b2f371ae2175ee4913f4499e1f2633a7b5936321eed1cdaeb6115181d26001604051610eb09190613a66565b60405180910390a15b50505050505050565b7fa49807205ce4d355092ef5a8a18f56e8913cf4a201fbe287825b095693c21775610eec81611c01565b610f167f114e74f6ea3bd819998f78687bfcb11b140da08e9b7d222fa9c1f1ba1f2aa12283611456565b610f5757816040517fbb339540000000000000000000000000000000000000000000000000000000008152600401610f4e91906138a3565b60405180910390fd5b610f817f114e74f6ea3bd819998f78687bfcb11b140da08e9b7d222fa9c1f1ba1f2aa12283611e17565b50610f8b8261213e565b5050565b610f976121e4565b610fa0826122ca565b610faa8282612355565b5050565b5f610fb7612473565b7f360894a13ba1a3210667c828492db98dca3e2076cc3735a920a3ca505d382bbc5f1b905090565b7fa49807205ce4d355092ef5a8a18f56e8913cf4a201fbe287825b095693c2177561100981611c01565b6110337f114e74f6ea3bd819998f78687bfcb11b140da08e9b7d222fa9c1f1ba1f2aa12285611456565b61107457836040517fbb33954000000000000000000000000000000000000000000000000000000000815260040161106b91906138a3565b60405180910390fd5b61107f848484611cfe565b50505050565b5f60035f8373ffffffffffffffffffffffffffffffffffffffff1673ffffffffffffffffffffffffffffffffffffffff1681526020019081526020015f205f9054906101000a900467ffffffffffffffff169050919050565b5f3390506110f0878287878787611f00565b8073ffffffffffffffffffffffffffffffffffffffff167f615131cacb29b1272c815ade31516a2c836c68fd8e6a81c3d6579a917bd20ca9875f801b60405161113a929190613aa2565b60405180910390a250505050505050565b7fbde745d383bd90948c6bf528cf5a56a9fe775bfee56a5d53b36fd785802b88ec81565b6111997fa49807205ce4d355092ef5a8a18f56e8913cf4a201fbe287825b095693c2177533611456565b1580156111cd57506111cb7f114e74f6ea3bd819998f78687bfcb11b140da08e9b7d222fa9c1f1ba1f2aa12233611456565b155b1561120f57336040517ff6ff090d00000000000000000000000000000000000000000000000000000000815260040161120691906138a3565b60405180910390fd5b5f600160035f3373ffffffffffffffffffffffffffffffffffffffff1673ffffffffffffffffffffffffffffffffffffffff1681526020019081526020015f205f9054906101000a900467ffffffffffffffff1661126d9190613b09565b90508060035f3373ffffffffffffffffffffffffffffffffffffffff1673ffffffffffffffffffffffffffffffffffffffff1681526020019081526020015f205f6101000a81548167ffffffffffffffff021916908367ffffffffffffffff1602179055503373ffffffffffffffffffffffffffffffffffffffff167f186eb7a21b1d6b2920dfeb0601dbf12bba51951722799762b8f6725ea6024881826040516113189190613588565b60405180910390a250565b7fa49807205ce4d355092ef5a8a18f56e8913cf4a201fbe287825b095693c2177581565b7f114e74f6ea3bd819998f78687bfcb11b140da08e9b7d222fa9c1f1ba1f2aa12261137181611c01565b5f73ffffffffffffffffffffffffffffffffffffffff168673ffffffffffffffffffffffffffffffffffffffff16036113d6576040517fd92e233d00000000000000000000000000000000000000000000000000000000815260040160405180910390fd5b8573ffffffffffffffffffffffffffffffffffffffff167f615131cacb29b1272c815ade31516a2c836c68fd8e6a81c3d6579a917bd20ca98387878760405161142294939291906139b9565b60405180910390a2505050505050565b7f114e74f6ea3bd819998f78687bfcb11b140da08e9b7d222fa9c1f1ba1f2aa12281565b5f805f8481526020019081526020015f205f015f8373ffffffffffffffffffffffffffffffffffffffff1673ffffffffffffffffffffffffffffffffffffffff1681526020019081526020015f205f9054906101000a900460ff16905092915050565b5f6114e47f114e74f6ea3bd819998f78687bfcb11b140da08e9b7d222fa9c1f1ba1f2aa12284611456565b801561155757505f8260038111156114ff576114fe6138bc565b5b60ff166001901b60025f8673ffffffffffffffffffffffffffffffffffffffff1673ffffffffffffffffffffffffffffffffffffffff1681526020019081526020015f205f9054906101000a900460ff1660ff161614155b905092915050565b5f801b81565b6040518060400160405280600581526020017f352e302e3000000000000000000000000000000000000000000000000000000081525081565b6115c87fa49807205ce4d355092ef5a8a18f56e8913cf4a201fbe287825b095693c2177533611456565b1580156115fc57506115fa7f114e74f6ea3bd819998f78687bfcb11b140da08e9b7d222fa9c1f1ba1f2aa12233611456565b155b1561163e57336040517ff6ff090d00000000000000000000000000000000000000000000000000000000815260040161163591906138a3565b60405180910390fd5b600160045f3373ffffffffffffffffffffffffffffffffffffffff1673ffffffffffffffffffffffffffffffffffffffff1681526020019081526020015f205f8381526020019081526020015f205f6101000a81548160ff021916908315150217905550803373ffffffffffffffffffffffffffffffffffffffff167f6cc46c13bf9ecc309370a9150165239f833c3742128d77220c49cb4915a07bc760405160405180910390a350565b5f3390506117177fa49807205ce4d355092ef5a8a18f56e8913cf4a201fbe287825b095693c2177589611456565b6117c9575f87600381111561172f5761172e6138bc565b5b60ff166001901b60025f8b73ffffffffffffffffffffffffffffffffffffffff1673ffffffffffffffffffffffffffffffffffffffff1681526020019081526020015f205f9054906101000a900460ff1660ff1616036117c85787876040517fb1b5fe090000000000000000000000000000000000000000000000000000000081526004016117bf92919061392f565b60405180910390fd5b5b6117d88882878a8888886124fa565b8073ffffffffffffffffffffffffffffffffffffffff167fb8624bc985b015b5d9851ea41053d3cb209b55986003ead30d964007dd3acbf58888604051611820929190613956565b60405180910390a25050505050505050565b7fa49807205ce4d355092ef5a8a18f56e8913cf4a201fbe287825b095693c2177561185c81611c01565b5f73ffffffffffffffffffffffffffffffffffffffff168573ffffffffffffffffffffffffffffffffffffffff16036118c1576040517fd92e233d00000000000000000000000000000000000000000000000000000000815260040160405180910390fd5b6118eb7f114e74f6ea3bd819998f78687bfcb11b140da08e9b7d222fa9c1f1ba1f2aa12286611456565b1561192d57846040517fc9b1283500000000000000000000000000000000000000000000000000000000815260040161192491906138a3565b60405180910390fd5b6119577f114e74f6ea3bd819998f78687bfcb11b140da08e9b7d222fa9c1f1ba1f2aa12286611c15565b50611963858585611cfe565b8473ffffffffffffffffffffffffffffffffffffffff167fb8624bc985b015b5d9851ea41053d3cb209b55986003ead30d964007dd3acbf55f846040516119ab929190613956565b60405180910390a25050505050565b7f114e74f6ea3bd819998f78687bfcb11b140da08e9b7d222fa9c1f1ba1f2aa1226119e481611c01565b5f73ffffffffffffffffffffffffffffffffffffffff168373ffffffffffffffffffffffffffffffffffffffff1603611a49576040517fd92e233d00000000000000000000000000000000000000000000000000000000815260040160405180910390fd5b8273ffffffffffffffffffffffffffffffffffffffff167f615131cacb29b1272c815ade31516a2c836c68fd8e6a81c3d6579a917bd20ca9835f801b604051611a93929190613aa2565b60405180910390a2505050565b611aa982610896565b611ab281611c01565b611abc8383611e17565b50505050565b7f114e74f6ea3bd819998f78687bfcb11b140da08e9b7d222fa9c1f1ba1f2aa122611aec81611c01565b5f73ffffffffffffffffffffffffffffffffffffffff168273ffffffffffffffffffffffffffffffffffffffff1603611b51576040517fd92e233d00000000000000000000000000000000000000000000000000000000815260040160405180910390fd5b8173ffffffffffffffffffffffffffffffffffffffff167fa0ff60c04be63f3cf32a661849abeec287a06df9820b4d6ba7d49853d3de3c5260405160405180910390a25050565b5f7f01ffc9a7000000000000000000000000000000000000000000000000000000007bffffffffffffffffffffffffffffffffffffffffffffffffffffffff1916827bffffffffffffffffffffffffffffffffffffffffffffffffffffffff1916149050919050565b611c1281611c0d611e10565b612685565b50565b5f611c208383611456565b611cf45760015f808581526020019081526020015f205f015f8473ffffffffffffffffffffffffffffffffffffffff1673ffffffffffffffffffffffffffffffffffffffff1681526020019081526020015f205f6101000a81548160ff021916908315150217905550611c91611e10565b73ffffffffffffffffffffffffffffffffffffffff168273ffffffffffffffffffffffffffffffffffffffff16847f2f8788117e7eff1d82e926ec794901d17c78024a50270940304540a733656f0d60405160405180910390a460019050611cf8565b5f90505b92915050565b5f805f90505b83839050811015611d66575f848483818110611d2357611d226139f7565b5b9050602002016020810190611d389190613b44565b6003811115611d4a57611d496138bc565b5b60ff166001901b90508083179250508080600101915050611d04565b508060025f8673ffffffffffffffffffffffffffffffffffffffff1673ffffffffffffffffffffffffffffffffffffffff1681526020019081526020015f205f6101000a81548160ff021916908360ff1602179055508373ffffffffffffffffffffffffffffffffffffffff167f613e927570b1980d59b70ba2644087bd89747c94069821d32001d9f9db2a951f82604051611e029190613b7e565b60405180910390a250505050565b5f33905090565b5f611e228383611456565b15611ef6575f805f8581526020019081526020015f205f015f8473ffffffffffffffffffffffffffffffffffffffff1673ffffffffffffffffffffffffffffffffffffffff1681526020019081526020015f205f6101000a81548160ff021916908315150217905550611e93611e10565b73ffffffffffffffffffffffffffffffffffffffff168273ffffffffffffffffffffffffffffffffffffffff16847ff6391f5c32d9c69d2a47ea670b442974b53935d1edc7fd64eb21e047a839171b60405160405180910390a460019050611efa565b5f90505b92915050565b611f09866126d6565b611f4a57856040517ff6ff090d000000000000000000000000000000000000000000000000000000008152600401611f4191906138a3565b60405180910390fd5b60045f8773ffffffffffffffffffffffffffffffffffffffff1673ffffffffffffffffffffffffffffffffffffffff1681526020019081526020015f205f8581526020019081526020015f205f9054906101000a900460ff1615611fe557836040517f15f464a9000000000000000000000000000000000000000000000000000000008152600401611fdc919061302c565b60405180910390fd5b5f601960f81b5f60f81b30898960035f8d73ffffffffffffffffffffffffffffffffffffffff1673ffffffffffffffffffffffffffffffffffffffff1681526020019081526020015f205f9054906101000a900467ffffffffffffffff168a60405160200161205a9796959493929190613ccf565b60405160208183030381529060405280519060200120905061207f8782868686612739565b50505050505050565b5f806120926127c2565b90508091505090565b6120a36127eb565b8060015f6101000a81548173ffffffffffffffffffffffffffffffffffffffff021916908373ffffffffffffffffffffffffffffffffffffffff16021790555050565b5f6120f083610896565b9050815f808581526020019081526020015f20600101819055508181847fbd79b86ffe0ab8e8776151514217cd7cacd52c909f66475c3af44e129f0b00ff60405160405180910390a4505050565b5f60025f8373ffffffffffffffffffffffffffffffffffffffff1673ffffffffffffffffffffffffffffffffffffffff1681526020019081526020015f205f6101000a81548160ff021916908360ff1602179055508073ffffffffffffffffffffffffffffffffffffffff167f613e927570b1980d59b70ba2644087bd89747c94069821d32001d9f9db2a951f5f6040516121d99190613d93565b60405180910390a250565b7f000000000000000000000000000000000000000000000000000000000000000073ffffffffffffffffffffffffffffffffffffffff163073ffffffffffffffffffffffffffffffffffffffff16148061229157507f000000000000000000000000000000000000000000000000000000000000000073ffffffffffffffffffffffffffffffffffffffff1661227861282b565b73ffffffffffffffffffffffffffffffffffffffff1614155b156122c8576040517fe07c8dba00000000000000000000000000000000000000000000000000000000815260040160405180910390fd5b565b60015f9054906101000a900473ffffffffffffffffffffffffffffffffffffffff1673ffffffffffffffffffffffffffffffffffffffff1663574a81d730836040518363ffffffff1660e01b8152600401612326929190613dac565b5f6040518083038186803b15801561233c575f80fd5b505afa15801561234e573d5f803e3d5ffd5b5050505050565b8173ffffffffffffffffffffffffffffffffffffffff166352d1902d6040518163ffffffff1660e01b8152600401602060405180830381865afa9250505080156123bd57506040513d601f19601f820116820180604052508101906123ba9190613de7565b60015b6123fe57816040517f4c9c8ce30000000000000000000000000000000000000000000000000000000081526004016123f591906138a3565b60405180910390fd5b7f360894a13ba1a3210667c828492db98dca3e2076cc3735a920a3ca505d382bbc5f1b811461246457806040517faa1d49a400000000000000000000000000000000000000000000000000000000815260040161245b919061302c565b60405180910390fd5b61246e838361287e565b505050565b7f000000000000000000000000000000000000000000000000000000000000000073ffffffffffffffffffffffffffffffffffffffff163073ffffffffffffffffffffffffffffffffffffffff16146124f8576040517fe07c8dba00000000000000000000000000000000000000000000000000000000815260040160405180910390fd5b565b612503876126d6565b61254457866040517ff6ff090d00000000000000000000000000000000000000000000000000000000815260040161253b91906138a3565b60405180910390fd5b60045f8873ffffffffffffffffffffffffffffffffffffffff1673ffffffffffffffffffffffffffffffffffffffff1681526020019081526020015f205f8681526020019081526020015f205f9054906101000a900460ff16156125df57846040517f15f464a90000000000000000000000000000000000000000000000000000000081526004016125d6919061302c565b60405180910390fd5b5f601960f81b5f60f81b308a8a8960035f8f73ffffffffffffffffffffffffffffffffffffffff1673ffffffffffffffffffffffffffffffffffffffff1681526020019081526020015f205f9054906101000a900467ffffffffffffffff168c604051602001612656989796959493929190613e90565b60405160208183030381529060405280519060200120905061267b8882868686612739565b5050505050505050565b61268f8282611456565b6126d25780826040517fe2517d3f0000000000000000000000000000000000000000000000000000000081526004016126c9929190613f2c565b60405180910390fd5b5050565b5f6127017fa49807205ce4d355092ef5a8a18f56e8913cf4a201fbe287825b095693c2177583611456565b8061273257506127317f114e74f6ea3bd819998f78687bfcb11b140da08e9b7d222fa9c1f1ba1f2aa12283611456565b5b9050919050565b5f612746858585856128f0565b90508573ffffffffffffffffffffffffffffffffffffffff168173ffffffffffffffffffffffffffffffffffffffff16146127ba5780866040517f966e87a80000000000000000000000000000000000000000000000000000000081526004016127b1929190613dac565b60405180910390fd5b505050505050565b5f7ff0c57e16840df040f15088dc2f81fe391c3923bec73e23a9662efc9c229c6a005f1b905090565b6127f361291e565b612829576040517fd7e6bcf800000000000000000000000000000000000000000000000000000000815260040160405180910390fd5b565b5f6128577f360894a13ba1a3210667c828492db98dca3e2076cc3735a920a3ca505d382bbc5f1b61293c565b5f015f9054906101000a900473ffffffffffffffffffffffffffffffffffffffff16905090565b61288782612945565b8173ffffffffffffffffffffffffffffffffffffffff167fbc7cd75a20ee27fd9adebab32041f755214dbc6bffa90cc0225b39da2e5c2d3b60405160405180910390a25f815111156128e3576128dd8282612a0e565b506128ec565b6128eb612a8e565b5b5050565b5f805f8061290088888888612aca565b9250925092506129108282612bb1565b829350505050949350505050565b5f612927612088565b5f0160089054906101000a900460ff16905090565b5f819050919050565b5f8173ffffffffffffffffffffffffffffffffffffffff163b036129a057806040517f4c9c8ce300000000000000000000000000000000000000000000000000000000815260040161299791906138a3565b60405180910390fd5b806129cc7f360894a13ba1a3210667c828492db98dca3e2076cc3735a920a3ca505d382bbc5f1b61293c565b5f015f6101000a81548173ffffffffffffffffffffffffffffffffffffffff021916908373ffffffffffffffffffffffffffffffffffffffff16021790555050565b60605f808473ffffffffffffffffffffffffffffffffffffffff1684604051612a379190613f97565b5f60405180830381855af49150503d805f8114612a6f576040519150601f19603f3d011682016040523d82523d5f602084013e612a74565b606091505b5091509150612a84858383612d13565b9250505092915050565b5f341115612ac8576040517fb398979f00000000000000000000000000000000000000000000000000000000815260040160405180910390fd5b565b5f805f7f7fffffffffffffffffffffffffffffff5d576e7357a4501ddfe92f46681b20a0845f1c1115612b06575f600385925092509250612ba7565b5f6001888888886040515f8152602001604052604051612b299493929190613fad565b6020604051602081039080840390855afa158015612b49573d5f803e3d5ffd5b5050506020604051035190505f73ffffffffffffffffffffffffffffffffffffffff168173ffffffffffffffffffffffffffffffffffffffff1603612b9a575f60015f801b93509350935050612ba7565b805f805f1b935093509350505b9450945094915050565b5f6003811115612bc457612bc36138bc565b5b826003811115612bd757612bd66138bc565b5b0315612d0f5760016003811115612bf157612bf06138bc565b5b826003811115612c0457612c036138bc565b5b03612c3b576040517ff645eedf00000000000000000000000000000000000000000000000000000000815260040160405180910390fd5b60026003811115612c4f57612c4e6138bc565b5b826003811115612c6257612c616138bc565b5b03612ca657805f1c6040517ffce698f7000000000000000000000000000000000000000000000000000000008152600401612c9d9190614008565b60405180910390fd5b600380811115612cb957612cb86138bc565b5b826003811115612ccc57612ccb6138bc565b5b03612d0e57806040517fd78bce0c000000000000000000000000000000000000000000000000000000008152600401612d05919061302c565b60405180910390fd5b5b5050565b606082612d2857612d2382612da0565b612d98565b5f8251148015612d4e57505f8473ffffffffffffffffffffffffffffffffffffffff163b145b15612d9057836040517f9996b315000000000000000000000000000000000000000000000000000000008152600401612d8791906138a3565b60405180910390fd5b819050612d99565b5b9392505050565b5f81511115612db157805160208201fd5b6040517fd6bda27500000000000000000000000000000000000000000000000000000000815260040160405180910390fd5b5f604051905090565b5f80fd5b5f80fd5b5f7fffffffff0000000000000000000000000000000000000000000000000000000082169050919050565b612e2881612df4565b8114612e32575f80fd5b50565b5f81359050612e4381612e1f565b92915050565b5f60208284031215612e5e57612e5d612dec565b5b5f612e6b84828501612e35565b91505092915050565b5f8115159050919050565b612e8881612e74565b82525050565b5f602082019050612ea15f830184612e7f565b92915050565b5f73ffffffffffffffffffffffffffffffffffffffff82169050919050565b5f612ed082612ea7565b9050919050565b612ee081612ec6565b8114612eea575f80fd5b50565b5f81359050612efb81612ed7565b92915050565b5f80fd5b5f80fd5b5f80fd5b5f8083601f840112612f2257612f21612f01565b5b8235905067ffffffffffffffff811115612f3f57612f3e612f05565b5b602083019150836020820283011115612f5b57612f5a612f09565b5b9250929050565b5f805f60408486031215612f7957612f78612dec565b5b5f612f8686828701612eed565b935050602084013567ffffffffffffffff811115612fa757612fa6612df0565b5b612fb386828701612f0d565b92509250509250925092565b5f819050919050565b612fd181612fbf565b8114612fdb575f80fd5b50565b5f81359050612fec81612fc8565b92915050565b5f6020828403121561300757613006612dec565b5b5f61301484828501612fde565b91505092915050565b61302681612fbf565b82525050565b5f60208201905061303f5f83018461301d565b92915050565b5f806040838503121561305b5761305a612dec565b5b5f61306885828601612eed565b925050602061307985828601612fde565b9150509250929050565b5f806040838503121561309957613098612dec565b5b5f6130a685828601612fde565b92505060206130b785828601612eed565b9150509250929050565b600481106130cd575f80fd5b50565b5f813590506130de816130c1565b92915050565b5f805f606084860312156130fb576130fa612dec565b5b5f61310886828701612eed565b9350506020613119868287016130d0565b925050604061312a86828701612fde565b9150509250925092565b5f8083601f84011261314957613148612f01565b5b8235905067ffffffffffffffff81111561316657613165612f05565b5b60208301915083600182028301111561318257613181612f09565b5b9250929050565b5f60ff82169050919050565b61319e81613189565b81146131a8575f80fd5b50565b5f813590506131b981613195565b92915050565b5f805f805f805f805f6101008a8c0312156131dd576131dc612dec565b5b5f6131ea8c828d01612eed565b99505060206131fb8c828d01612fde565b98505060408a013567ffffffffffffffff81111561321c5761321b612df0565b5b6132288c828d01613134565b9750975050606061323b8c828d01612fde565b955050608061324c8c828d01612fde565b94505060a061325d8c828d016131ab565b93505060c061326e8c828d01612fde565b92505060e061327f8c828d01612fde565b9150509295985092959850929598565b5f601f19601f8301169050919050565b7f4e487b71000000000000000000000000000000000000000000000000000000005f52604160045260245ffd5b6132d58261328f565b810181811067ffffffffffffffff821117156132f4576132f361329f565b5b80604052505050565b5f613306612de3565b905061331282826132cc565b919050565b5f67ffffffffffffffff8211156133315761333061329f565b5b602082029050602081019050919050565b5f61335461334f84613317565b6132fd565b9050808382526020820190506020840283018581111561337757613376612f09565b5b835b818110156133a0578061338c8882612eed565b845260208401935050602081019050613379565b5050509392505050565b5f82601f8301126133be576133bd612f01565b5b81356133ce848260208601613342565b91505092915050565b5f80604083850312156133ed576133ec612dec565b5b5f83013567ffffffffffffffff81111561340a57613409612df0565b5b613416858286016133aa565b925050602061342785828601612eed565b9150509250929050565b5f6020828403121561344657613445612dec565b5b5f61345384828501612eed565b91505092915050565b5f80fd5b5f67ffffffffffffffff82111561347a5761347961329f565b5b6134838261328f565b9050602081019050919050565b828183375f83830152505050565b5f6134b06134ab84613460565b6132fd565b9050828152602081018484840111156134cc576134cb61345c565b5b6134d7848285613490565b509392505050565b5f82601f8301126134f3576134f2612f01565b5b813561350384826020860161349e565b91505092915050565b5f806040838503121561352257613521612dec565b5b5f61352f85828601612eed565b925050602083013567ffffffffffffffff8111156135505761354f612df0565b5b61355c858286016134df565b9150509250929050565b5f67ffffffffffffffff82169050919050565b61358281613566565b82525050565b5f60208201905061359b5f830184613579565b92915050565b5f805f805f8060c087890312156135bb576135ba612dec565b5b5f6135c889828a01612eed565b96505060206135d989828a01612fde565b95505060406135ea89828a01612fde565b94505060606135fb89828a016131ab565b935050608061360c89828a01612fde565b92505060a061361d89828a01612fde565b9150509295509295509295565b5f805f805f6080868803121561364357613642612dec565b5b5f61365088828901612eed565b955050602061366188828901612fde565b945050604086013567ffffffffffffffff81111561368257613681612df0565b5b61368e88828901613134565b935093505060606136a188828901612fde565b9150509295509295909350565b5f80604083850312156136c4576136c3612dec565b5b5f6136d185828601612eed565b92505060206136e2858286016130d0565b9150509250929050565b5f81519050919050565b5f82825260208201905092915050565b5f5b83811015613723578082015181840152602081019050613708565b5f8484015250505050565b5f613738826136ec565b61374281856136f6565b9350613752818560208601613706565b61375b8161328f565b840191505092915050565b5f6020820190508181035f83015261377e818461372e565b905092915050565b5f805f805f805f60e0888a0312156137a1576137a0612dec565b5b5f6137ae8a828b01612eed565b97505060206137bf8a828b016130d0565b96505060406137d08a828b01612fde565b95505060606137e18a828b01612fde565b94505060806137f28a828b016131ab565b93505060a06138038a828b01612fde565b92505060c06138148a828b01612fde565b91505092959891949750929550565b5f805f806060858703121561383b5761383a612dec565b5b5f61384887828801612eed565b945050602085013567ffffffffffffffff81111561386957613868612df0565b5b61387587828801612f0d565b9350935050604061388887828801612fde565b91505092959194509250565b61389d81612ec6565b82525050565b5f6020820190506138b65f830184613894565b92915050565b7f4e487b71000000000000000000000000000000000000000000000000000000005f52602160045260245ffd5b600481106138fa576138f96138bc565b5b50565b5f81905061390a826138e9565b919050565b5f613919826138fd565b9050919050565b6139298161390f565b82525050565b5f6040820190506139425f830185613894565b61394f6020830184613920565b9392505050565b5f6040820190506139695f830185613920565b613976602083018461301d565b9392505050565b5f82825260208201905092915050565b5f613998838561397d565b93506139a5838584613490565b6139ae8361328f565b840190509392505050565b5f6060820190506139cc5f83018761301d565b6139d9602083018661301d565b81810360408301526139ec81848661398d565b905095945050505050565b7f4e487b71000000000000000000000000000000000000000000000000000000005f52603260045260245ffd5b5f819050919050565b5f819050919050565b5f613a50613a4b613a4684613a24565b613a2d565b613566565b9050919050565b613a6081613a36565b82525050565b5f602082019050613a795f830184613a57565b92915050565b50565b5f613a8d5f8361397d565b9150613a9882613a7f565b5f82019050919050565b5f606082019050613ab55f83018561301d565b613ac2602083018461301d565b8181036040830152613ad381613a82565b90509392505050565b7f4e487b71000000000000000000000000000000000000000000000000000000005f52601160045260245ffd5b5f613b1382613566565b9150613b1e83613566565b9250828201905067ffffffffffffffff811115613b3e57613b3d613adc565b5b92915050565b5f60208284031215613b5957613b58612dec565b5b5f613b66848285016130d0565b91505092915050565b613b7881613189565b82525050565b5f602082019050613b915f830184613b6f565b92915050565b5f7fff0000000000000000000000000000000000000000000000000000000000000082169050919050565b5f819050919050565b613bdc613bd782613b97565b613bc2565b82525050565b5f8160601b9050919050565b5f613bf882613be2565b9050919050565b5f613c0982613bee565b9050919050565b613c21613c1c82612ec6565b613bff565b82525050565b5f81905092915050565b7f4341505f555044415445000000000000000000000000000000000000000000005f82015250565b5f613c65600a83613c27565b9150613c7082613c31565b600a82019050919050565b5f8160c01b9050919050565b5f613c9182613c7b565b9050919050565b613ca9613ca482613566565b613c87565b82525050565b5f819050919050565b613cc9613cc482612fbf565b613caf565b82525050565b5f613cda828a613bcb565b600182019150613cea8289613bcb565b600182019150613cfa8288613c10565b601482019150613d0982613c59565b9150613d158287613c10565b601482019150613d258286613c10565b601482019150613d358285613c98565b600882019150613d458284613cb8565b60208201915081905098975050505050505050565b5f819050919050565b5f613d7d613d78613d7384613d5a565b613a2d565b613189565b9050919050565b613d8d81613d63565b82525050565b5f602082019050613da65f830184613d84565b92915050565b5f604082019050613dbf5f830185613894565b613dcc6020830184613894565b9392505050565b5f81519050613de181612fc8565b92915050565b5f60208284031215613dfc57613dfb612dec565b5b5f613e0984828501613dd3565b91505092915050565b7f4341505f435245415445000000000000000000000000000000000000000000005f82015250565b5f613e46600a83613c27565b9150613e5182613e12565b600a82019050919050565b5f8160f81b9050919050565b5f613e7282613e5c565b9050919050565b613e8a613e858261390f565b613e68565b82525050565b5f613e9b828b613bcb565b600182019150613eab828a613bcb565b600182019150613ebb8289613c10565b601482019150613eca82613e3a565b9150613ed68288613c10565b601482019150613ee68287613c10565b601482019150613ef68286613e79565b600182019150613f068285613c98565b600882019150613f168284613cb8565b6020820191508190509998505050505050505050565b5f604082019050613f3f5f830185613894565b613f4c602083018461301d565b9392505050565b5f81519050919050565b5f81905092915050565b5f613f7182613f53565b613f7b8185613f5d565b9350613f8b818560208601613706565b80840191505092915050565b5f613fa28284613f67565b915081905092915050565b5f608082019050613fc05f83018761301d565b613fcd6020830186613b6f565b613fda604083018561301d565b613fe7606083018461301d565b95945050505050565b5f819050919050565b61400281613ff0565b82525050565b5f60208201905061401b5f830184613ff9565b9291505056fea2646970667358221220b2cfbdcf4fa134a003eeed354046246f267e642c7bc7f0b217b584148aeeacfa64736f6c63430008180033",
    "linkReferences": {},
    "deployedLinkReferences": {}
}