{
  "_format": "hh-sol-artifact-1",
  "contractName": "DIDRegistry",
  "sourceName": "contracts/did/DIdRegistry.sol",
  "abi": [
    {
      "inputs": [],
      "name": "AccessControlBadConfirmation",
      "type": "error"
    },
    {
      "inputs": [
        {
          "internalType": "address",
          "name": "account",
          "type": "address"
        },
        {
          "internalType": "bytes32",
          "name": "neededRole",
          "type": "bytes32"
        }
      ],
      "name": "AccessControlUnauthorizedAccount",
      "type": "error"
    },
    {
      "inputs": [
        {
          "internalType": "address",
          "name": "target",
          "type": "address"
        }
      ],
      "name": "AddressEmptyCode",
      "type": "error"
    },
    {
      "inputs": [],
      "name": "ECDSAInvalidSignature",
      "type": "error"
    },
    {
      "inputs": [
        {
          "internalType": "uint256",
          "name": "length",
          "type": "uint256"
        }
      ],
      "name": "ECDSAInvalidSignatureLength",
      "type": "error"
    },
    {
      "inputs": [
        {
          "internalType": "bytes32",
          "name": "s",
          "type": "bytes32"
        }
      ],
      "name": "ECDSAInvalidSignatureS",
      "type": "error"
    },
    {
      "inputs": [
        {
          "internalType": "address",
          "name": "implementation",
          "type": "address"
        }
      ],
      "name": "ERC1967InvalidImplementation",
      "type": "error"
    },
    {
      "inputs": [],
      "name": "ERC1967NonPayable",
      "type": "error"
    },
    {
      "inputs": [],
      "name": "FailedCall",
      "type": "error"
    },
    {
      "inputs": [],
      "name": "InvalidInitialization",
      "type": "error"
    },
    {
      "inputs": [
        {
          "internalType": "address",
          "name": "recovered",
          "type": "address"
        },
        {
          "internalType": "address",
          "name": "expected",
          "type": "address"
        }
      ],
      "name": "InvalidIssuerSignature",
      "type": "error"
    },
    {
      "inputs": [
        {
          "internalType": "address",
          "name": "issuer",
          "type": "address"
        }
      ],
      "name": "IssuerAlreadyExists",
      "type": "error"
    },
    {
      "inputs": [
        {
          "internalType": "address",
          "name": "issuer",
          "type": "address"
        }
      ],
      "name": "IssuerNotRegistered",
      "type": "error"
    },
    {
      "inputs": [
        {
          "internalType": "address",
          "name": "issuer",
          "type": "address"
        },
        {
          "internalType": "enum DIDType",
          "name": "didType",
          "type": "uint8"
        }
      ],
      "name": "IssuerTypeNotAllowed",
      "type": "error"
    },
    {
      "inputs": [],
      "name": "NoInitialSteward",
      "type": "error"
    },
    {
      "inputs": [],
      "name": "NotInitializing",
      "type": "error"
    },
    {
      "inputs": [
        {
          "internalType": "uint256",
          "name": "deadline",
          "type": "uint256"
        },
        {
          "internalType": "uint256",
          "name": "currentTimestamp",
          "type": "uint256"
        }
      ],
      "name": "SignatureExpired",
      "type": "error"
    },
    {
      "inputs": [],
      "name": "UUPSUnauthorizedCallContext",
      "type": "error"
    },
    {
      "inputs": [
        {
          "internalType": "bytes32",
          "name": "slot",
          "type": "bytes32"
        }
      ],
      "name": "UUPSUnsupportedProxiableUUID",
      "type": "error"
    },
    {
      "inputs": [],
      "name": "ZeroAddress",
      "type": "error"
    },
    {
      "anonymous": false,
      "inputs": [
        {
          "indexed": true,
          "internalType": "address",
          "name": "did",
          "type": "address"
        },
        {
          "indexed": false,
          "internalType": "enum DIDType",
          "name": "didType",
          "type": "uint8"
        },
        {
          "indexed": false,
          "internalType": "bytes32",
          "name": "docHash",
          "type": "bytes32"
        }
      ],
      "name": "DIDCreated",
      "type": "event"
    },
    {
      "anonymous": false,
      "inputs": [
        {
          "indexed": true,
          "internalType": "address",
          "name": "did",
          "type": "address"
        }
      ],
      "name": "DIDRevoked",
      "type": "event"
    },
    {
      "anonymous": false,
      "inputs": [
        {
          "indexed": true,
          "internalType": "address",
          "name": "did",
          "type": "address"
        },
        {
          "indexed": false,
          "internalType": "bytes32",
          "name": "docHash",
          "type": "bytes32"
        },
        {
          "indexed": false,
          "internalType": "bytes32",
          "name": "name",
          "type": "bytes32"
        },
        {
          "indexed": false,
          "internalType": "bytes",
          "name": "value",
          "type": "bytes"
        }
      ],
      "name": "DIDUpdated",
      "type": "event"
    },
    {
      "anonymous": false,
      "inputs": [
        {
          "indexed": false,
          "internalType": "uint64",
          "name": "version",
          "type": "uint64"
        }
      ],
      "name": "Initialized",
      "type": "event"
    },
    {
      "anonymous": false,
      "inputs": [
        {
          "indexed": true,
          "internalType": "address",
          "name": "issuer",
          "type": "address"
        },
        {
          "indexed": false,
          "internalType": "uint8",
          "name": "maskType",
          "type": "uint8"
        }
      ],
      "name": "IssuerPermissionsUpdated",
      "type": "event"
    },
    {
      "anonymous": false,
      "inputs": [
        {
          "indexed": true,
          "internalType": "bytes32",
          "name": "role",
          "type": "bytes32"
        },
        {
          "indexed": true,
          "internalType": "bytes32",
          "name": "previousAdminRole",
          "type": "bytes32"
        },
        {
          "indexed": true,
          "internalType": "bytes32",
          "name": "newAdminRole",
          "type": "bytes32"
        }
      ],
      "name": "RoleAdminChanged",
      "type": "event"
    },
    {
      "anonymous": false,
      "inputs": [
        {
          "indexed": true,
          "internalType": "bytes32",
          "name": "role",
          "type": "bytes32"
        },
        {
          "indexed": true,
          "internalType": "address",
          "name": "account",
          "type": "address"
        },
        {
          "indexed": true,
          "internalType": "address",
          "name": "sender",
          "type": "address"
        }
      ],
      "name": "RoleGranted",
      "type": "event"
    },
    {
      "anonymous": false,
      "inputs": [
        {
          "indexed": true,
          "internalType": "bytes32",
          "name": "role",
          "type": "bytes32"
        },
        {
          "indexed": true,
          "internalType": "address",
          "name": "account",
          "type": "address"
        },
        {
          "indexed": true,
          "internalType": "address",
          "name": "sender",
          "type": "address"
        }
      ],
      "name": "RoleRevoked",
      "type": "event"
    },
    {
      "anonymous": false,
      "inputs": [
        {
          "indexed": true,
          "internalType": "address",
          "name": "implementation",
          "type": "address"
        }
      ],
      "name": "Upgraded",
      "type": "event"
    },
    {
      "inputs": [],
      "name": "ADMIN_ROLE",
      "outputs": [
        {
          "internalType": "bytes32",
          "name": "",
          "type": "bytes32"
        }
      ],
      "stateMutability": "view",
      "type": "function"
    },
    {
      "inputs": [],
      "name": "DEFAULT_ADMIN_ROLE",
      "outputs": [
        {
          "internalType": "bytes32",
          "name": "",
          "type": "bytes32"
        }
      ],
      "stateMutability": "view",
      "type": "function"
    },
    {
      "inputs": [],
      "name": "ISSUER_ROLE",
      "outputs": [
        {
          "internalType": "bytes32",
          "name": "",
          "type": "bytes32"
        }
      ],
      "stateMutability": "view",
      "type": "function"
    },
    {
      "inputs": [],
      "name": "STEWARD_ROLE",
      "outputs": [
        {
          "internalType": "bytes32",
          "name": "",
          "type": "bytes32"
        }
      ],
      "stateMutability": "view",
      "type": "function"
    },
    {
      "inputs": [],
      "name": "UPGRADE_INTERFACE_VERSION",
      "outputs": [
        {
          "internalType": "string",
          "name": "",
          "type": "string"
        }
      ],
      "stateMutability": "view",
      "type": "function"
    },
    {
      "inputs": [
        {
          "internalType": "address",
          "name": "issuer",
          "type": "address"
        },
        {
          "internalType": "enum DIDType[]",
          "name": "permissions",
          "type": "uint8[]"
        },
        {
          "internalType": "bytes32",
          "name": "docHash",
          "type": "bytes32"
        }
      ],
      "name": "addIssuer",
      "outputs": [],
      "stateMutability": "nonpayable",
      "type": "function"
    },
    {
      "inputs": [
        {
          "internalType": "address",
          "name": "issuer",
          "type": "address"
        },
        {
          "internalType": "enum DIDType",
          "name": "didType",
          "type": "uint8"
        },
        {
          "internalType": "bytes32",
          "name": "docHash",
          "type": "bytes32"
        },
        {
          "internalType": "uint256",
          "name": "deadline",
          "type": "uint256"
        },
        {
          "internalType": "uint8",
          "name": "v",
          "type": "uint8"
        },
        {
          "internalType": "bytes32",
          "name": "r",
          "type": "bytes32"
        },
        {
          "internalType": "bytes32",
          "name": "s",
          "type": "bytes32"
        }
      ],
      "name": "createDID",
      "outputs": [],
      "stateMutability": "nonpayable",
      "type": "function"
    },
    {
      "inputs": [
        {
          "internalType": "bytes32",
          "name": "role",
          "type": "bytes32"
        }
      ],
      "name": "getRoleAdmin",
      "outputs": [
        {
          "internalType": "bytes32",
          "name": "",
          "type": "bytes32"
        }
      ],
      "stateMutability": "view",
      "type": "function"
    },
    {
      "inputs": [
        {
          "internalType": "bytes32",
          "name": "role",
          "type": "bytes32"
        },
        {
          "internalType": "address",
          "name": "account",
          "type": "address"
        }
      ],
      "name": "grantRole",
      "outputs": [],
      "stateMutability": "nonpayable",
      "type": "function"
    },
    {
      "inputs": [
        {
          "internalType": "bytes32",
          "name": "role",
          "type": "bytes32"
        },
        {
          "internalType": "address",
          "name": "account",
          "type": "address"
        }
      ],
      "name": "hasRole",
      "outputs": [
        {
          "internalType": "bool",
          "name": "",
          "type": "bool"
        }
      ],
      "stateMutability": "view",
      "type": "function"
    },
    {
      "inputs": [
        {
          "internalType": "address[]",
          "name": "initialStewards",
          "type": "address[]"
        },
        {
          "internalType": "address",
          "name": "upgradeControlAddress",
          "type": "address"
        }
      ],
      "name": "initialize",
      "outputs": [],
      "stateMutability": "nonpayable",
      "type": "function"
    },
    {
      "inputs": [
        {
          "internalType": "address",
          "name": "issuer",
          "type": "address"
        },
        {
          "internalType": "enum DIDType",
          "name": "didType",
          "type": "uint8"
        }
      ],
      "name": "isIssuerAllowedForType",
      "outputs": [
        {
          "internalType": "bool",
          "name": "",
          "type": "bool"
        }
      ],
      "stateMutability": "view",
      "type": "function"
    },
    {
      "inputs": [],
      "name": "proxiableUUID",
      "outputs": [
        {
          "internalType": "bytes32",
          "name": "",
          "type": "bytes32"
        }
      ],
      "stateMutability": "view",
      "type": "function"
    },
    {
      "inputs": [
        {
          "internalType": "address",
          "name": "issuer",
          "type": "address"
        }
      ],
      "name": "removeIssuer",
      "outputs": [],
      "stateMutability": "nonpayable",
      "type": "function"
    },
    {
      "inputs": [
        {
          "internalType": "bytes32",
          "name": "role",
          "type": "bytes32"
        },
        {
          "internalType": "address",
          "name": "callerConfirmation",
          "type": "address"
        }
      ],
      "name": "renounceRole",
      "outputs": [],
      "stateMutability": "nonpayable",
      "type": "function"
    },
    {
      "inputs": [
        {
          "internalType": "address",
          "name": "issuer",
          "type": "address"
        },
        {
          "internalType": "uint256",
          "name": "deadline",
          "type": "uint256"
        },
        {
          "internalType": "uint8",
          "name": "v",
          "type": "uint8"
        },
        {
          "internalType": "bytes32",
          "name": "r",
          "type": "bytes32"
        },
        {
          "internalType": "bytes32",
          "name": "s",
          "type": "bytes32"
        }
      ],
      "name": "revokeDID",
      "outputs": [],
      "stateMutability": "nonpayable",
      "type": "function"
    },
    {
      "inputs": [
        {
          "internalType": "address",
          "name": "did",
          "type": "address"
        }
      ],
      "name": "revokeDIDByIssuer",
      "outputs": [],
      "stateMutability": "nonpayable",
      "type": "function"
    },
    {
      "inputs": [
        {
          "internalType": "bytes32",
          "name": "role",
          "type": "bytes32"
        },
        {
          "internalType": "address",
          "name": "account",
          "type": "address"
        }
      ],
      "name": "revokeRole",
      "outputs": [],
      "stateMutability": "nonpayable",
      "type": "function"
    },
    {
      "inputs": [
        {
          "internalType": "address",
          "name": "issuer",
          "type": "address"
        },
        {
          "internalType": "bytes32",
          "name": "name",
          "type": "bytes32"
        },
        {
          "internalType": "bytes",
          "name": "value",
          "type": "bytes"
        },
        {
          "internalType": "bytes32",
          "name": "docHash",
          "type": "bytes32"
        },
        {
          "internalType": "uint256",
          "name": "deadline",
          "type": "uint256"
        },
        {
          "internalType": "uint8",
          "name": "v",
          "type": "uint8"
        },
        {
          "internalType": "bytes32",
          "name": "r",
          "type": "bytes32"
        },
        {
          "internalType": "bytes32",
          "name": "s",
          "type": "bytes32"
        }
      ],
      "name": "setAttribute",
      "outputs": [],
      "stateMutability": "nonpayable",
      "type": "function"
    },
    {
      "inputs": [
        {
          "internalType": "address",
          "name": "did",
          "type": "address"
        },
        {
          "internalType": "bytes32",
          "name": "name",
          "type": "bytes32"
        },
        {
          "internalType": "bytes",
          "name": "value",
          "type": "bytes"
        },
        {
          "internalType": "bytes32",
          "name": "docHash",
          "type": "bytes32"
        }
      ],
      "name": "setAttributeByIssuer",
      "outputs": [],
      "stateMutability": "nonpayable",
      "type": "function"
    },
    {
      "inputs": [
        {
          "internalType": "address",
          "name": "issuer",
          "type": "address"
        },
        {
          "internalType": "bytes32",
          "name": "docHash",
          "type": "bytes32"
        },
        {
          "internalType": "uint256",
          "name": "deadline",
          "type": "uint256"
        },
        {
          "internalType": "uint8",
          "name": "v",
          "type": "uint8"
        },
        {
          "internalType": "bytes32",
          "name": "r",
          "type": "bytes32"
        },
        {
          "internalType": "bytes32",
          "name": "s",
          "type": "bytes32"
        }
      ],
      "name": "setDocumentHash",
      "outputs": [],
      "stateMutability": "nonpayable",
      "type": "function"
    },
    {
      "inputs": [
        {
          "internalType": "address",
          "name": "did",
          "type": "address"
        },
        {
          "internalType": "bytes32",
          "name": "docHash",
          "type": "bytes32"
        }
      ],
      "name": "setDocumentHashByIssuer",
      "outputs": [],
      "stateMutability": "nonpayable",
      "type": "function"
    },
    {
      "inputs": [
        {
          "internalType": "address",
          "name": "issuer",
          "type": "address"
        },
        {
          "internalType": "enum DIDType[]",
          "name": "permissions",
          "type": "uint8[]"
        }
      ],
      "name": "setIssuerPermissions",
      "outputs": [],
      "stateMutability": "nonpayable",
      "type": "function"
    },
    {
      "inputs": [
        {
          "internalType": "bytes4",
          "name": "interfaceId",
          "type": "bytes4"
        }
      ],
      "name": "supportsInterface",
      "outputs": [
        {
          "internalType": "bool",
          "name": "",
          "type": "bool"
        }
      ],
      "stateMutability": "view",
      "type": "function"
    },
    {
      "inputs": [
        {
          "internalType": "address",
          "name": "newImplementation",
          "type": "address"
        },
        {
          "internalType": "bytes",
          "name": "data",
          "type": "bytes"
        }
      ],
      "name": "upgradeToAndCall",
      "outputs": [],
      "stateMutability": "payable",
      "type": "function"
    }
  ],
  "bytecode": "0x60a06040523073ffffffffffffffffffffffffffffffffffffffff1660809073ffffffffffffffffffffffffffffffffffffffff16815250348015610042575f80fd5b50608051613b416100695f395f8181611c6a01528181611cbf0152611ef90152613b415ff3fe608060405260043610610164575f3560e01c806364305916116100d057806391d1485411610089578063ad3cb1cc11610063578063ad3cb1cc146104fe578063d236486414610528578063d547741f14610550578063eef748611461057857610164565b806391d148541461045c5780639215bafc14610498578063a217fddf146104d457610164565b8063643059161461036657806375b238fc14610390578063767ba36f146103ba5780637b9c6fd9146103e257806382aefa241461040a5780638d43e2b31461043457610164565b8063462d0b2e11610122578063462d0b2e1461028057806347bc7093146102a85780634f1ef286146102d057806352d1902d146102ec57806354233b72146103165780635725aaaa1461033e57610164565b80628a45bf1461016857806301ffc9a714610190578063248a9ca3146101cc5780632f2ff15d1461020857806336568abe146102305780633941cbd514610258575b5f80fd5b348015610173575f80fd5b5061018e6004803603810190610189919061282c565b6105a0565b005b34801561019b575f80fd5b506101b660048036038101906101b1919061291e565b6107bc565b6040516101c39190612963565b60405180910390f35b3480156101d7575f80fd5b506101f260048036038101906101ed919061297c565b610835565b6040516101ff91906129b6565b60405180910390f35b348015610213575f80fd5b5061022e600480360381019061022991906129cf565b610851565b005b34801561023b575f80fd5b50610256600480360381019061025191906129cf565b610873565b005b348015610263575f80fd5b5061027e60048036038101906102799190612a6e565b6108ee565b005b34801561028b575f80fd5b506102a660048036038101906102a19190612c86565b610a6f565b005b3480156102b3575f80fd5b506102ce60048036038101906102c99190612ce0565b610d7c565b005b6102ea60048036038101906102e59190612dbb565b610e8c565b005b3480156102f7575f80fd5b50610300610eab565b60405161030d91906129b6565b60405180910390f35b348015610321575f80fd5b5061033c60048036038101906103379190612e6a565b610edc565b005b348015610349575f80fd5b50610364600480360381019061035f9190612ec7565b610f82565b005b348015610371575f80fd5b5061037a61110a565b60405161038791906129b6565b60405180910390f35b34801561039b575f80fd5b506103a461112e565b6040516103b191906129b6565b60405180910390f35b3480156103c5575f80fd5b506103e060048036038101906103db9190612f38565b611152565b005b3480156103ed575f80fd5b5061040860048036038101906104039190612fbc565b61123d565b005b348015610415575f80fd5b5061041e611387565b60405161042b91906129b6565b60405180910390f35b34801561043f575f80fd5b5061045a60048036038101906104559190613033565b6113ab565b005b348015610467575f80fd5b50610482600480360381019061047d91906129cf565b611507565b60405161048f9190612963565b60405180910390f35b3480156104a3575f80fd5b506104be60048036038101906104b991906130bc565b61156a565b6040516104cb9190612963565b60405180910390f35b3480156104df575f80fd5b506104e8611610565b6040516104f591906129b6565b60405180910390f35b348015610509575f80fd5b50610512611616565b60405161051f9190613174565b60405180910390f35b348015610533575f80fd5b5061054e60048036038101906105499190613194565b61164f565b005b34801561055b575f80fd5b50610576600480360381019061057191906129cf565b611735565b005b348015610583575f80fd5b5061059e60048036038101906105999190612ce0565b611757565b005b5f339050844211156105eb5784426040517ff88f04900000000000000000000000000000000000000000000000000000000081526004016105e29291906131e1565b60405180910390fd5b6106157f114e74f6ea3bd819998f78687bfcb11b140da08e9b7d222fa9c1f1ba1f2aa12289611507565b61065657876040517fbb33954000000000000000000000000000000000000000000000000000000000815260040161064d9190613217565b60405180910390fd5b5f87600381111561066a57610669613230565b5b60ff166001901b60025f8b73ffffffffffffffffffffffffffffffffffffffff1673ffffffffffffffffffffffffffffffffffffffff1681526020019081526020015f205f9054906101000a900460ff1660ff1616036107035787876040517fb1b5fe090000000000000000000000000000000000000000000000000000000081526004016106fa9291906132a3565b60405180910390fd5b5f601960f81b5f60f81b308b858c600381111561072357610722613230565b5b8c8c60405160200161073c989796959493929190613422565b604051602081830303815290604052805190602001209050610761898287878761182d565b8173ffffffffffffffffffffffffffffffffffffffff167fb8624bc985b015b5d9851ea41053d3cb209b55986003ead30d964007dd3acbf589896040516107a99291906134be565b60405180910390a2505050505050505050565b5f7f7965db0b000000000000000000000000000000000000000000000000000000007bffffffffffffffffffffffffffffffffffffffffffffffffffffffff1916827bffffffffffffffffffffffffffffffffffffffffffffffffffffffff1916148061082e575061082d826118b6565b5b9050919050565b5f805f8381526020019081526020015f20600101549050919050565b61085a82610835565b6108638161191f565b61086d8383611933565b50505050565b61087b611a1c565b73ffffffffffffffffffffffffffffffffffffffff168173ffffffffffffffffffffffffffffffffffffffff16146108df576040517f6697b23200000000000000000000000000000000000000000000000000000000815260040160405180910390fd5b6108e98282611a23565b505050565b5f339050844211156109395784426040517ff88f04900000000000000000000000000000000000000000000000000000000081526004016109309291906131e1565b60405180910390fd5b6109637f114e74f6ea3bd819998f78687bfcb11b140da08e9b7d222fa9c1f1ba1f2aa1228b611507565b6109a457896040517fbb33954000000000000000000000000000000000000000000000000000000000815260040161099b9190613217565b60405180910390fd5b5f88886040516109b5929190613513565b604051809103902090505f601960f81b5f60f81b308e868f878e8e6040516020016109e899989796959493929190613575565b604051602081830303815290604052805190602001209050610a0d8c8288888861182d565b8273ffffffffffffffffffffffffffffffffffffffff167f615131cacb29b1272c815ade31516a2c836c68fd8e6a81c3d6579a917bd20ca9898d8d8d604051610a59949392919061365e565b60405180910390a2505050505050505050505050565b5f610a78611b0c565b90505f815f0160089054906101000a900460ff161590505f825f015f9054906101000a900467ffffffffffffffff1690505f808267ffffffffffffffff16148015610ac05750825b90505f60018367ffffffffffffffff16148015610af357505f3073ffffffffffffffffffffffffffffffffffffffff163b145b905081158015610b01575080155b15610b38576040517ff92ee8a900000000000000000000000000000000000000000000000000000000815260040160405180910390fd5b6001855f015f6101000a81548167ffffffffffffffff021916908367ffffffffffffffff1602179055508315610b85576001855f0160086101000a81548160ff0219169083151502179055505b5f875103610bbf576040517fb991893900000000000000000000000000000000000000000000000000000000815260040160405180910390fd5b610bc886611b1f565b5f5b8751811015610ca4575f73ffffffffffffffffffffffffffffffffffffffff16888281518110610bfd57610bfc61369c565b5b602002602001015173ffffffffffffffffffffffffffffffffffffffff1603610c52576040517fd92e233d00000000000000000000000000000000000000000000000000000000815260040160405180910390fd5b610c967fbde745d383bd90948c6bf528cf5a56a9fe775bfee56a5d53b36fd785802b88ec898381518110610c8957610c8861369c565b5b6020026020010151611933565b508080600101915050610bca565b50610ccf7fbde745d383bd90948c6bf528cf5a56a9fe775bfee56a5d53b36fd785802b88ec80611b6a565b610d197fa49807205ce4d355092ef5a8a18f56e8913cf4a201fbe287825b095693c217757fbde745d383bd90948c6bf528cf5a56a9fe775bfee56a5d53b36fd785802b88ec611b6a565b8315610d73575f855f0160086101000a81548160ff0219169083151502179055507fc7f505b2f371ae2175ee4913f4499e1f2633a7b5936321eed1cdaeb6115181d26001604051610d6a919061371e565b60405180910390a15b50505050505050565b7fa49807205ce4d355092ef5a8a18f56e8913cf4a201fbe287825b095693c21775610da68161191f565b610dd07f114e74f6ea3bd819998f78687bfcb11b140da08e9b7d222fa9c1f1ba1f2aa12283611507565b610e1157816040517fbb339540000000000000000000000000000000000000000000000000000000008152600401610e089190613217565b60405180910390fd5b610e3b7f114e74f6ea3bd819998f78687bfcb11b140da08e9b7d222fa9c1f1ba1f2aa12283611a23565b50610e4582611bc2565b8173ffffffffffffffffffffffffffffffffffffffff167fa0ff60c04be63f3cf32a661849abeec287a06df9820b4d6ba7d49853d3de3c5260405160405180910390a25050565b610e94611c68565b610e9d82611d4e565b610ea78282611dd9565b5050565b5f610eb4611ef7565b7f360894a13ba1a3210667c828492db98dca3e2076cc3735a920a3ca505d382bbc5f1b905090565b7fa49807205ce4d355092ef5a8a18f56e8913cf4a201fbe287825b095693c21775610f068161191f565b610f307f114e74f6ea3bd819998f78687bfcb11b140da08e9b7d222fa9c1f1ba1f2aa12285611507565b610f7157836040517fbb339540000000000000000000000000000000000000000000000000000000008152600401610f689190613217565b60405180910390fd5b610f7c848484611f7e565b50505050565b7fa49807205ce4d355092ef5a8a18f56e8913cf4a201fbe287825b095693c21775610fac8161191f565b5f73ffffffffffffffffffffffffffffffffffffffff168573ffffffffffffffffffffffffffffffffffffffff1603611011576040517fd92e233d00000000000000000000000000000000000000000000000000000000815260040160405180910390fd5b61103b7f114e74f6ea3bd819998f78687bfcb11b140da08e9b7d222fa9c1f1ba1f2aa12286611507565b1561107d57846040517fc9b128350000000000000000000000000000000000000000000000000000000081526004016110749190613217565b60405180910390fd5b6110a77f114e74f6ea3bd819998f78687bfcb11b140da08e9b7d222fa9c1f1ba1f2aa12286611933565b506110b3858585611f7e565b8473ffffffffffffffffffffffffffffffffffffffff167fb8624bc985b015b5d9851ea41053d3cb209b55986003ead30d964007dd3acbf55f846040516110fb9291906134be565b60405180910390a25050505050565b7fbde745d383bd90948c6bf528cf5a56a9fe775bfee56a5d53b36fd785802b88ec81565b7fa49807205ce4d355092ef5a8a18f56e8913cf4a201fbe287825b095693c2177581565b7f114e74f6ea3bd819998f78687bfcb11b140da08e9b7d222fa9c1f1ba1f2aa12261117c8161191f565b5f73ffffffffffffffffffffffffffffffffffffffff168673ffffffffffffffffffffffffffffffffffffffff16036111e1576040517fd92e233d00000000000000000000000000000000000000000000000000000000815260040160405180910390fd5b8573ffffffffffffffffffffffffffffffffffffffff167f615131cacb29b1272c815ade31516a2c836c68fd8e6a81c3d6579a917bd20ca98387878760405161122d949392919061365e565b60405180910390a2505050505050565b5f339050844211156112885784426040517ff88f049000000000000000000000000000000000000000000000000000000000815260040161127f9291906131e1565b60405180910390fd5b6112b27f114e74f6ea3bd819998f78687bfcb11b140da08e9b7d222fa9c1f1ba1f2aa12287611507565b6112f357856040517fbb3395400000000000000000000000000000000000000000000000000000000081526004016112ea9190613217565b60405180910390fd5b5f601960f81b5f60f81b3089858a60405160200161131696959493929190613781565b60405160208183030381529060405280519060200120905061133b878287878761182d565b8173ffffffffffffffffffffffffffffffffffffffff167fa0ff60c04be63f3cf32a661849abeec287a06df9820b4d6ba7d49853d3de3c5260405160405180910390a250505050505050565b7f114e74f6ea3bd819998f78687bfcb11b140da08e9b7d222fa9c1f1ba1f2aa12281565b5f339050844211156113f65784426040517ff88f04900000000000000000000000000000000000000000000000000000000081526004016113ed9291906131e1565b60405180910390fd5b6114207f114e74f6ea3bd819998f78687bfcb11b140da08e9b7d222fa9c1f1ba1f2aa12288611507565b61146157866040517fbb3395400000000000000000000000000000000000000000000000000000000081526004016114589190613217565b60405180910390fd5b5f601960f81b5f60f81b308a858b8b6040516020016114869796959493929190613845565b6040516020818303038152906040528051906020012090506114ab888287878761182d565b8173ffffffffffffffffffffffffffffffffffffffff167f615131cacb29b1272c815ade31516a2c836c68fd8e6a81c3d6579a917bd20ca9885f801b6040516114f59291906138f3565b60405180910390a25050505050505050565b5f805f8481526020019081526020015f205f015f8373ffffffffffffffffffffffffffffffffffffffff1673ffffffffffffffffffffffffffffffffffffffff1681526020019081526020015f205f9054906101000a900460ff16905092915050565b5f6115957f114e74f6ea3bd819998f78687bfcb11b140da08e9b7d222fa9c1f1ba1f2aa12284611507565b801561160857505f8260038111156115b0576115af613230565b5b60ff166001901b60025f8673ffffffffffffffffffffffffffffffffffffffff1673ffffffffffffffffffffffffffffffffffffffff1681526020019081526020015f205f9054906101000a900460ff1660ff161614155b905092915050565b5f801b81565b6040518060400160405280600581526020017f352e302e3000000000000000000000000000000000000000000000000000000081525081565b7f114e74f6ea3bd819998f78687bfcb11b140da08e9b7d222fa9c1f1ba1f2aa1226116798161191f565b5f73ffffffffffffffffffffffffffffffffffffffff168373ffffffffffffffffffffffffffffffffffffffff16036116de576040517fd92e233d00000000000000000000000000000000000000000000000000000000815260040160405180910390fd5b8273ffffffffffffffffffffffffffffffffffffffff167f615131cacb29b1272c815ade31516a2c836c68fd8e6a81c3d6579a917bd20ca9835f801b6040516117289291906138f3565b60405180910390a2505050565b61173e82610835565b6117478161191f565b6117518383611a23565b50505050565b7f114e74f6ea3bd819998f78687bfcb11b140da08e9b7d222fa9c1f1ba1f2aa1226117818161191f565b5f73ffffffffffffffffffffffffffffffffffffffff168273ffffffffffffffffffffffffffffffffffffffff16036117e6576040517fd92e233d00000000000000000000000000000000000000000000000000000000815260040160405180910390fd5b8173ffffffffffffffffffffffffffffffffffffffff167fa0ff60c04be63f3cf32a661849abeec287a06df9820b4d6ba7d49853d3de3c5260405160405180910390a25050565b5f61183a85858585612090565b90508573ffffffffffffffffffffffffffffffffffffffff168173ffffffffffffffffffffffffffffffffffffffff16146118ae5780866040517f812ab3250000000000000000000000000000000000000000000000000000000081526004016118a592919061392d565b60405180910390fd5b505050505050565b5f7f01ffc9a7000000000000000000000000000000000000000000000000000000007bffffffffffffffffffffffffffffffffffffffffffffffffffffffff1916827bffffffffffffffffffffffffffffffffffffffffffffffffffffffff1916149050919050565b6119308161192b611a1c565b6120be565b50565b5f61193e8383611507565b611a125760015f808581526020019081526020015f205f015f8473ffffffffffffffffffffffffffffffffffffffff1673ffffffffffffffffffffffffffffffffffffffff1681526020019081526020015f205f6101000a81548160ff0219169083151502179055506119af611a1c565b73ffffffffffffffffffffffffffffffffffffffff168273ffffffffffffffffffffffffffffffffffffffff16847f2f8788117e7eff1d82e926ec794901d17c78024a50270940304540a733656f0d60405160405180910390a460019050611a16565b5f90505b92915050565b5f33905090565b5f611a2e8383611507565b15611b02575f805f8581526020019081526020015f205f015f8473ffffffffffffffffffffffffffffffffffffffff1673ffffffffffffffffffffffffffffffffffffffff1681526020019081526020015f205f6101000a81548160ff021916908315150217905550611a9f611a1c565b73ffffffffffffffffffffffffffffffffffffffff168273ffffffffffffffffffffffffffffffffffffffff16847ff6391f5c32d9c69d2a47ea670b442974b53935d1edc7fd64eb21e047a839171b60405160405180910390a460019050611b06565b5f90505b92915050565b5f80611b1661210f565b90508091505090565b611b27612138565b8060015f6101000a81548173ffffffffffffffffffffffffffffffffffffffff021916908373ffffffffffffffffffffffffffffffffffffffff16021790555050565b5f611b7483610835565b9050815f808581526020019081526020015f20600101819055508181847fbd79b86ffe0ab8e8776151514217cd7cacd52c909f66475c3af44e129f0b00ff60405160405180910390a4505050565b5f60025f8373ffffffffffffffffffffffffffffffffffffffff1673ffffffffffffffffffffffffffffffffffffffff1681526020019081526020015f205f6101000a81548160ff021916908360ff1602179055508073ffffffffffffffffffffffffffffffffffffffff167f613e927570b1980d59b70ba2644087bd89747c94069821d32001d9f9db2a951f5f604051611c5d919061398d565b60405180910390a250565b7f000000000000000000000000000000000000000000000000000000000000000073ffffffffffffffffffffffffffffffffffffffff163073ffffffffffffffffffffffffffffffffffffffff161480611d1557507f000000000000000000000000000000000000000000000000000000000000000073ffffffffffffffffffffffffffffffffffffffff16611cfc612178565b73ffffffffffffffffffffffffffffffffffffffff1614155b15611d4c576040517fe07c8dba00000000000000000000000000000000000000000000000000000000815260040160405180910390fd5b565b60015f9054906101000a900473ffffffffffffffffffffffffffffffffffffffff1673ffffffffffffffffffffffffffffffffffffffff1663574a81d730836040518363ffffffff1660e01b8152600401611daa92919061392d565b5f6040518083038186803b158015611dc0575f80fd5b505afa158015611dd2573d5f803e3d5ffd5b5050505050565b8173ffffffffffffffffffffffffffffffffffffffff166352d1902d6040518163ffffffff1660e01b8152600401602060405180830381865afa925050508015611e4157506040513d601f19601f82011682018060405250810190611e3e91906139ba565b60015b611e8257816040517f4c9c8ce3000000000000000000000000000000000000000000000000000000008152600401611e799190613217565b60405180910390fd5b7f360894a13ba1a3210667c828492db98dca3e2076cc3735a920a3ca505d382bbc5f1b8114611ee857806040517faa1d49a4000000000000000000000000000000000000000000000000000000008152600401611edf91906129b6565b60405180910390fd5b611ef283836121cb565b505050565b7f000000000000000000000000000000000000000000000000000000000000000073ffffffffffffffffffffffffffffffffffffffff163073ffffffffffffffffffffffffffffffffffffffff1614611f7c576040517fe07c8dba00000000000000000000000000000000000000000000000000000000815260040160405180910390fd5b565b5f805f90505b83839050811015611fe6575f848483818110611fa357611fa261369c565b5b9050602002016020810190611fb891906139e5565b6003811115611fca57611fc9613230565b5b60ff166001901b90508083179250508080600101915050611f84565b508060025f8673ffffffffffffffffffffffffffffffffffffffff1673ffffffffffffffffffffffffffffffffffffffff1681526020019081526020015f205f6101000a81548160ff021916908360ff1602179055508373ffffffffffffffffffffffffffffffffffffffff167f613e927570b1980d59b70ba2644087bd89747c94069821d32001d9f9db2a951f826040516120829190613a1f565b60405180910390a250505050565b5f805f806120a08888888861223d565b9250925092506120b08282612324565b829350505050949350505050565b6120c88282611507565b61210b5780826040517fe2517d3f000000000000000000000000000000000000000000000000000000008152600401612102929190613a38565b60405180910390fd5b5050565b5f7ff0c57e16840df040f15088dc2f81fe391c3923bec73e23a9662efc9c229c6a005f1b905090565b612140612486565b612176576040517fd7e6bcf800000000000000000000000000000000000000000000000000000000815260040160405180910390fd5b565b5f6121a47f360894a13ba1a3210667c828492db98dca3e2076cc3735a920a3ca505d382bbc5f1b6124a4565b5f015f9054906101000a900473ffffffffffffffffffffffffffffffffffffffff16905090565b6121d4826124ad565b8173ffffffffffffffffffffffffffffffffffffffff167fbc7cd75a20ee27fd9adebab32041f755214dbc6bffa90cc0225b39da2e5c2d3b60405160405180910390a25f815111156122305761222a8282612576565b50612239565b6122386125f6565b5b5050565b5f805f7f7fffffffffffffffffffffffffffffff5d576e7357a4501ddfe92f46681b20a0845f1c1115612279575f60038592509250925061231a565b5f6001888888886040515f815260200160405260405161229c9493929190613a5f565b6020604051602081039080840390855afa1580156122bc573d5f803e3d5ffd5b5050506020604051035190505f73ffffffffffffffffffffffffffffffffffffffff168173ffffffffffffffffffffffffffffffffffffffff160361230d575f60015f801b9350935093505061231a565b805f805f1b935093509350505b9450945094915050565b5f600381111561233757612336613230565b5b82600381111561234a57612349613230565b5b0315612482576001600381111561236457612363613230565b5b82600381111561237757612376613230565b5b036123ae576040517ff645eedf00000000000000000000000000000000000000000000000000000000815260040160405180910390fd5b600260038111156123c2576123c1613230565b5b8260038111156123d5576123d4613230565b5b0361241957805f1c6040517ffce698f70000000000000000000000000000000000000000000000000000000081526004016124109190613aa2565b60405180910390fd5b60038081111561242c5761242b613230565b5b82600381111561243f5761243e613230565b5b0361248157806040517fd78bce0c00000000000000000000000000000000000000000000000000000000815260040161247891906129b6565b60405180910390fd5b5b5050565b5f61248f611b0c565b5f0160089054906101000a900460ff16905090565b5f819050919050565b5f8173ffffffffffffffffffffffffffffffffffffffff163b0361250857806040517f4c9c8ce30000000000000000000000000000000000000000000000000000000081526004016124ff9190613217565b60405180910390fd5b806125347f360894a13ba1a3210667c828492db98dca3e2076cc3735a920a3ca505d382bbc5f1b6124a4565b5f015f6101000a81548173ffffffffffffffffffffffffffffffffffffffff021916908373ffffffffffffffffffffffffffffffffffffffff16021790555050565b60605f808473ffffffffffffffffffffffffffffffffffffffff168460405161259f9190613af5565b5f60405180830381855af49150503d805f81146125d7576040519150601f19603f3d011682016040523d82523d5f602084013e6125dc565b606091505b50915091506125ec858383612632565b9250505092915050565b5f341115612630576040517fb398979f00000000000000000000000000000000000000000000000000000000815260040160405180910390fd5b565b60608261264757612642826126bf565b6126b7565b5f825114801561266d57505f8473ffffffffffffffffffffffffffffffffffffffff163b145b156126af57836040517f9996b3150000000000000000000000000000000000000000000000000000000081526004016126a69190613217565b60405180910390fd5b8190506126b8565b5b9392505050565b5f815111156126d057805160208201fd5b6040517fd6bda27500000000000000000000000000000000000000000000000000000000815260040160405180910390fd5b5f604051905090565b5f80fd5b5f80fd5b5f73ffffffffffffffffffffffffffffffffffffffff82169050919050565b5f61273c82612713565b9050919050565b61274c81612732565b8114612756575f80fd5b50565b5f8135905061276781612743565b92915050565b60048110612779575f80fd5b50565b5f8135905061278a8161276d565b92915050565b5f819050919050565b6127a281612790565b81146127ac575f80fd5b50565b5f813590506127bd81612799565b92915050565b5f819050919050565b6127d5816127c3565b81146127df575f80fd5b50565b5f813590506127f0816127cc565b92915050565b5f60ff82169050919050565b61280b816127f6565b8114612815575f80fd5b50565b5f8135905061282681612802565b92915050565b5f805f805f805f60e0888a0312156128475761284661270b565b5b5f6128548a828b01612759565b97505060206128658a828b0161277c565b96505060406128768a828b016127af565b95505060606128878a828b016127e2565b94505060806128988a828b01612818565b93505060a06128a98a828b016127af565b92505060c06128ba8a828b016127af565b91505092959891949750929550565b5f7fffffffff0000000000000000000000000000000000000000000000000000000082169050919050565b6128fd816128c9565b8114612907575f80fd5b50565b5f81359050612918816128f4565b92915050565b5f602082840312156129335761293261270b565b5b5f6129408482850161290a565b91505092915050565b5f8115159050919050565b61295d81612949565b82525050565b5f6020820190506129765f830184612954565b92915050565b5f602082840312156129915761299061270b565b5b5f61299e848285016127af565b91505092915050565b6129b081612790565b82525050565b5f6020820190506129c95f8301846129a7565b92915050565b5f80604083850312156129e5576129e461270b565b5b5f6129f2858286016127af565b9250506020612a0385828601612759565b9150509250929050565b5f80fd5b5f80fd5b5f80fd5b5f8083601f840112612a2e57612a2d612a0d565b5b8235905067ffffffffffffffff811115612a4b57612a4a612a11565b5b602083019150836001820283011115612a6757612a66612a15565b5b9250929050565b5f805f805f805f805f6101008a8c031215612a8c57612a8b61270b565b5b5f612a998c828d01612759565b9950506020612aaa8c828d016127af565b98505060408a013567ffffffffffffffff811115612acb57612aca61270f565b5b612ad78c828d01612a19565b97509750506060612aea8c828d016127af565b9550506080612afb8c828d016127e2565b94505060a0612b0c8c828d01612818565b93505060c0612b1d8c828d016127af565b92505060e0612b2e8c828d016127af565b9150509295985092959850929598565b5f601f19601f8301169050919050565b7f4e487b71000000000000000000000000000000000000000000000000000000005f52604160045260245ffd5b612b8482612b3e565b810181811067ffffffffffffffff82111715612ba357612ba2612b4e565b5b80604052505050565b5f612bb5612702565b9050612bc18282612b7b565b919050565b5f67ffffffffffffffff821115612be057612bdf612b4e565b5b602082029050602081019050919050565b5f612c03612bfe84612bc6565b612bac565b90508083825260208201905060208402830185811115612c2657612c25612a15565b5b835b81811015612c4f5780612c3b8882612759565b845260208401935050602081019050612c28565b5050509392505050565b5f82601f830112612c6d57612c6c612a0d565b5b8135612c7d848260208601612bf1565b91505092915050565b5f8060408385031215612c9c57612c9b61270b565b5b5f83013567ffffffffffffffff811115612cb957612cb861270f565b5b612cc585828601612c59565b9250506020612cd685828601612759565b9150509250929050565b5f60208284031215612cf557612cf461270b565b5b5f612d0284828501612759565b91505092915050565b5f80fd5b5f67ffffffffffffffff821115612d2957612d28612b4e565b5b612d3282612b3e565b9050602081019050919050565b828183375f83830152505050565b5f612d5f612d5a84612d0f565b612bac565b905082815260208101848484011115612d7b57612d7a612d0b565b5b612d86848285612d3f565b509392505050565b5f82601f830112612da257612da1612a0d565b5b8135612db2848260208601612d4d565b91505092915050565b5f8060408385031215612dd157612dd061270b565b5b5f612dde85828601612759565b925050602083013567ffffffffffffffff811115612dff57612dfe61270f565b5b612e0b85828601612d8e565b9150509250929050565b5f8083601f840112612e2a57612e29612a0d565b5b8235905067ffffffffffffffff811115612e4757612e46612a11565b5b602083019150836020820283011115612e6357612e62612a15565b5b9250929050565b5f805f60408486031215612e8157612e8061270b565b5b5f612e8e86828701612759565b935050602084013567ffffffffffffffff811115612eaf57612eae61270f565b5b612ebb86828701612e15565b92509250509250925092565b5f805f8060608587031215612edf57612ede61270b565b5b5f612eec87828801612759565b945050602085013567ffffffffffffffff811115612f0d57612f0c61270f565b5b612f1987828801612e15565b93509350506040612f2c878288016127af565b91505092959194509250565b5f805f805f60808688031215612f5157612f5061270b565b5b5f612f5e88828901612759565b9550506020612f6f888289016127af565b945050604086013567ffffffffffffffff811115612f9057612f8f61270f565b5b612f9c88828901612a19565b93509350506060612faf888289016127af565b9150509295509295909350565b5f805f805f60a08688031215612fd557612fd461270b565b5b5f612fe288828901612759565b9550506020612ff3888289016127e2565b945050604061300488828901612818565b9350506060613015888289016127af565b9250506080613026888289016127af565b9150509295509295909350565b5f805f805f8060c0878903121561304d5761304c61270b565b5b5f61305a89828a01612759565b965050602061306b89828a016127af565b955050604061307c89828a016127e2565b945050606061308d89828a01612818565b935050608061309e89828a016127af565b92505060a06130af89828a016127af565b9150509295509295509295565b5f80604083850312156130d2576130d161270b565b5b5f6130df85828601612759565b92505060206130f08582860161277c565b9150509250929050565b5f81519050919050565b5f82825260208201905092915050565b5f5b83811015613131578082015181840152602081019050613116565b5f8484015250505050565b5f613146826130fa565b6131508185613104565b9350613160818560208601613114565b61316981612b3e565b840191505092915050565b5f6020820190508181035f83015261318c818461313c565b905092915050565b5f80604083850312156131aa576131a961270b565b5b5f6131b785828601612759565b92505060206131c8858286016127af565b9150509250929050565b6131db816127c3565b82525050565b5f6040820190506131f45f8301856131d2565b61320160208301846131d2565b9392505050565b61321181612732565b82525050565b5f60208201905061322a5f830184613208565b92915050565b7f4e487b71000000000000000000000000000000000000000000000000000000005f52602160045260245ffd5b6004811061326e5761326d613230565b5b50565b5f81905061327e8261325d565b919050565b5f61328d82613271565b9050919050565b61329d81613283565b82525050565b5f6040820190506132b65f830185613208565b6132c36020830184613294565b9392505050565b5f7fff0000000000000000000000000000000000000000000000000000000000000082169050919050565b5f819050919050565b61330f61330a826132ca565b6132f5565b82525050565b5f8160601b9050919050565b5f61332b82613315565b9050919050565b5f61333c82613321565b9050919050565b61335461334f82612732565b613332565b82525050565b5f81905092915050565b7f4352454154455f444944000000000000000000000000000000000000000000005f82015250565b5f613398600a8361335a565b91506133a382613364565b600a82019050919050565b5f8160f81b9050919050565b5f6133c4826133ae565b9050919050565b6133dc6133d7826127f6565b6133ba565b82525050565b5f819050919050565b6133fc6133f782612790565b6133e2565b82525050565b5f819050919050565b61341c613417826127c3565b613402565b82525050565b5f61342d828b6132fe565b60018201915061343d828a6132fe565b60018201915061344d8289613343565b60148201915061345c8261338c565b91506134688288613343565b6014820191506134788287613343565b60148201915061348882866133cb565b60018201915061349882856133eb565b6020820191506134a8828461340b565b6020820191508190509998505050505050505050565b5f6040820190506134d15f830185613294565b6134de60208301846129a7565b9392505050565b5f81905092915050565b5f6134fa83856134e5565b9350613507838584612d3f565b82840190509392505050565b5f61351f8284866134ef565b91508190509392505050565b7f5345545f415454520000000000000000000000000000000000000000000000005f82015250565b5f61355f60088361335a565b915061356a8261352b565b600882019050919050565b5f613580828c6132fe565b600182019150613590828b6132fe565b6001820191506135a0828a613343565b6014820191506135af82613553565b91506135bb8289613343565b6014820191506135cb8288613343565b6014820191506135db82876133eb565b6020820191506135eb82866133eb565b6020820191506135fb82856133eb565b60208201915061360b828461340b565b6020820191508190509a9950505050505050505050565b5f82825260208201905092915050565b5f61363d8385613622565b935061364a838584612d3f565b61365383612b3e565b840190509392505050565b5f6060820190506136715f8301876129a7565b61367e60208301866129a7565b8181036040830152613691818486613632565b905095945050505050565b7f4e487b71000000000000000000000000000000000000000000000000000000005f52603260045260245ffd5b5f819050919050565b5f67ffffffffffffffff82169050919050565b5f819050919050565b5f6137086137036136fe846136c9565b6136e5565b6136d2565b9050919050565b613718816136ee565b82525050565b5f6020820190506137315f83018461370f565b92915050565b7f5245564f4b455f444944000000000000000000000000000000000000000000005f82015250565b5f61376b600a8361335a565b915061377682613737565b600a82019050919050565b5f61378c82896132fe565b60018201915061379c82886132fe565b6001820191506137ac8287613343565b6014820191506137bb8261375f565b91506137c78286613343565b6014820191506137d78285613343565b6014820191506137e7828461340b565b602082019150819050979650505050505050565b7f5345545f444f43000000000000000000000000000000000000000000000000005f82015250565b5f61382f60078361335a565b915061383a826137fb565b600782019050919050565b5f613850828a6132fe565b60018201915061386082896132fe565b6001820191506138708288613343565b60148201915061387f82613823565b915061388b8287613343565b60148201915061389b8286613343565b6014820191506138ab82856133eb565b6020820191506138bb828461340b565b60208201915081905098975050505050505050565b50565b5f6138de5f83613622565b91506138e9826138d0565b5f82019050919050565b5f6060820190506139065f8301856129a7565b61391360208301846129a7565b8181036040830152613924816138d3565b90509392505050565b5f6040820190506139405f830185613208565b61394d6020830184613208565b9392505050565b5f819050919050565b5f61397761397261396d84613954565b6136e5565b6127f6565b9050919050565b6139878161395d565b82525050565b5f6020820190506139a05f83018461397e565b92915050565b5f815190506139b481612799565b92915050565b5f602082840312156139cf576139ce61270b565b5b5f6139dc848285016139a6565b91505092915050565b5f602082840312156139fa576139f961270b565b5b5f613a078482850161277c565b91505092915050565b613a19816127f6565b82525050565b5f602082019050613a325f830184613a10565b92915050565b5f604082019050613a4b5f830185613208565b613a5860208301846129a7565b9392505050565b5f608082019050613a725f8301876129a7565b613a7f6020830186613a10565b613a8c60408301856129a7565b613a9960608301846129a7565b95945050505050565b5f602082019050613ab55f8301846131d2565b92915050565b5f81519050919050565b5f613acf82613abb565b613ad981856134e5565b9350613ae9818560208601613114565b80840191505092915050565b5f613b008284613ac5565b91508190509291505056fea2646970667358221220572984ed4b37f149fa76e2db1cd6b584009d29cd6dba8f57a5825f2070a7507264736f6c63430008180033",
  "linkReferences": {},
  "deployedLinkReferences": {}
}